:020000040800F2
:1000000010B5054C237833B9044B13B10448AFF352
:1000100000800123237010BD380400200000000080
:100020000C34000808B5034B1BB103490348AFF378
:10003000008008BD000000003C0400200C340008D3
:10004000A3F5803A704700BF174B002B08BF134B36
:100050009D46FFF7F5FF00218B460F461348144AD3
:10006000121A00F04FFA0E4B002B00D098470D4BA0
:10007000002B00D098470020002104000D000D48FF
:10008000002802D00C4800F0FFFA00F017FA200018
:10009000290002F0E3FE00F001FA00BF00000800B2
:1000A00000000000000000000000000038040020F4
:1000B00078040020890600089506000853B94AB95B
:1000C000002908BF00281CBF4FF0FF314FF0FF3060
:1000D00000F074B9ADF1080C6DE904CE00F006F83B
:1000E000DDF804E0DDE9022304B070472DE9F047B4
:1000F000089D04468E46002B4DD18A42944669D90C
:10010000B2FA82F252B101FA02F3C2F1200120FAEE
:1001100001F10CFA02FC41EA030E94404FEA1C483C
:10012000210CBEFBF8F61FFA8CF708FB16E341EA38
:10013000034306FB07F199420AD91CEB030306F1BE
:10014000FF3080F01F81994240F21C81023E6344DF
:100150005B1AA4B2B3FBF8F008FB103344EA034483
:1001600000FB07F7A7420AD91CEB040400F1FF3398
:1001700080F00A81A74240F207816444023840EAD5
:100180000640E41B00261DB1D4400023C5E900430E
:100190003146BDE8F0878B4209D9002D00F0EF8091
:1001A0000026C5E9000130463146BDE8F087B3FAC4
:1001B00083F6002E4AD18B4202D3824200F2F980AC
:1001C000841A61EB030301209E46002DE0D0C5E9AF
:1001D000004EDDE702B9FFDEB2FA82F2002A40F0FB
:1001E0009280A1EB0C014FEA1C471FFA8CFE0126FE
:1001F000200CB1FBF7F307FB131140EA01410EFBA2
:1002000003F0884208D91CEB010103F1FF3802D248
:10021000884200F2CB804346091AA4B2B1FBF7F042
:1002200007FB101144EA01440EFB00FEA64508D965
:100230001CEB040400F1FF3102D2A64500F2BB80A2
:100240000846A4EB0E0440EA03409CE7C6F12007F1
:10025000B34022FA07FC4CEA030C20FA07F401FA37
:1002600006F31C43F9404FEA1C4900FA06F3B1FBC0
:10027000F9F8200C1FFA8CFE09FB181140EA014125
:1002800008FB0EF0884202FA06F20BD91CEB0101C2
:1002900008F1FF3A80F08880884240F28580A8F11A
:1002A00002086144091AA4B2B1FBF9F009FB10116C
:1002B00044EA014100FB0EFE8E4508D91CEB01010A
:1002C00000F1FF346CD28E456AD90238614440EAAD
:1002D0000840A0FB0294A1EB0E01A142C846A6462D
:1002E00056D353D05DB1B3EB080261EB0E0101FAB6
:1002F00007F722FA06F3F1401F43C5E90071002613
:100300003146BDE8F087C2F12003D8400CFA02FC68
:1003100021FA03F3914001434FEA1C471FFA8CFE78
:10032000B3FBF7F007FB10360B0C43EA064300FB68
:100330000EF69E4204FA02F408D91CEB030300F106
:10034000FF382FD29E422DD9023863449B1B89B2BD
:10035000B3FBF7F607FB163341EA034106FB0EF346
:100360008B4208D91CEB010106F1FF3816D28B42F3
:1003700014D9023E6144C91A46EA004638E72E46BF
:10038000284605E70646E3E61846F8E64B45A9D2B7
:10039000B9EB020864EB0C0E0138A3E74646EAE726
:1003A000204694E74046D1E7D0467BE7023B6144D4
:1003B00032E7304609E76444023842E7704700BF3D
:1003C00090F800F06DE9024520F007016FF0000C95
:1003D00010F0070491F820F040F049804FF000043D
:1003E0006FF00700D1E9002391F840F000F1080018
:1003F00082FA4CF2A4FA8CF283FA4CF3A2FA8CF350
:100400004BBBD1E9022382FA4CF200F10800A4FAB6
:100410008CF283FA4CF3A2FA8CF3E3B9D1E904230A
:1004200082FA4CF200F10800A4FA8CF283FA4CF341
:10043000A2FA8CF37BB9D1E9062301F1200182FAFB
:100440004CF200F10800A4FA8CF283FA4CF3A2FA01
:100450008CF3002BC6D0002A04BF04301A4612BA0F
:10046000B2FA82F2FDE8024500EBD2007047D1E912
:10047000002304F00305C4F100004FEAC50514F0A1
:10048000040F91F840F00CFA05F562EA05021CBF72
:1004900063EA050362464FF00004A9E708B50021AE
:1004A000044600F08BF8044B1868C36B03B19847FF
:1004B000204600F05FF900BF7834000870B50D4E9B
:1004C0000D4D761BB61006D0002455F8043B0134C0
:1004D0009847A642F9D1094E094D761B02F098FFC4
:1004E000B61006D0002455F8043B01349847A642C4
:1004F000F9D170BDB4340008B4340008BC3400082D
:10050000B4340008830730B548D0541E002A3FD0C9
:10051000CAB2034601E0013C3AD303F8012B9D0720
:10052000F9D1032C2DD9CDB245EA05250F2C45EA8A
:10053000054536D9A4F1100222F00F0C03F1200E6C
:10054000E6444FEA121C03F1100242E9045542E965
:10055000025510327245F8D10CF1010214F00C0F63
:1005600003EB021204F00F0C13D0ACF1040323F0E0
:1005700003030433134442F8045B9342FBD10CF0B1
:1005800003042CB1CAB21C4403F8012B9C42FBD1DA
:1005900030BD64461346002CF4D1F9E703461446F7
:1005A000BFE71A46A446E0E7024B13B1024800F049
:1005B0006BB8704700000000950600082DE9F84F61
:1005C0002F4B2DED028B834618680F4600F082F802
:1005D0002C4BD3F80080D8F84861AEB108EE10BAC1
:1005E0004FF001094FF0000A7468651E0CD4013405
:1005F00006EB840487B1D4F80031BB420CD0013D36
:100600006B1CA4F10404F5D1BDEC028B1C4B1868E3
:10061000BDE8F84F00F066B873682268013BAB4252
:100620000CBF7560C4F800A0002AE8D0D6F8880195
:10063000D6F804B009FA05F101420BD1904772686F
:100640005A4513D1D8F84831B342D8D01E46002EAF
:10065000CAD1D9E7D6F88C0101420CD1D4F8801068
:1006600018EE100A904772685A45EBD0D8F84861E6
:10067000002EB9D1C8E7D4F880009047DFE700BF6B
:100680003004002078340008002301461A4618463A
:1006900000F02AB838B5084B084D5B1B9C1007D0FA
:1006A000043B1D44013C55F804399847002CF9D10E
:1006B000BDE8384002F0B2BEC0340008BC340008C7
:1006C000704700BF704700BF704700BF704700BF52
:1006D000704700BF704700BF01207047012070477E
:1006E000704700BF704700BF2DE9F047DFF880A0DA
:1006F0000646DAF8000098460F469146FFF7EAFFF3
:100700001A4B1B68D3F8484124B365681F2D26DCBB
:100710005EB96B1C0235DAF80000636044F825709E
:10072000FFF7E0FF0020BDE8F08704EB850101231F
:10073000C1F88890D4F88821AB401A43022EC4F83F
:100740008821C1F80881E4D1D4F88C211343C4F87E
:100750008C31DEE703F5A674C3F84841D5E7DAF833
:100760000000FFF7BFFF4FF0FF30DCE778340008F0
:1007700030040020FEE700BF80B489B000AFF8600D
:10078000B9607A60FB681A68BB687B617B6993FA21
:10079000A3F33B613B69B3FA83F3DBB25B00032154
:1007A00001FA03F3DB431A40BB68FB61FB6993FA70
:1007B000A3F3BB61BB69B3FA83F3DBB25B00796877
:1007C00001FA03F31A43FB681A6000BF2437BD46E1
:1007D0005DF8047B704780B485B000AFF860B96005
:1007E0007A60FB685A68BB68DB431A40BB6879686B
:1007F00001FB03F31A43FB685A6000BF1437BD4680
:100800005DF8047B704780B489B000AFF860B960D0
:100810007A60FB689A68BB687B617B6993FAA3F393
:100820003B613B69B3FA83F3DBB25B00032101FA5E
:1008300003F3DB431A40BB68FB61FB6993FAA3F344
:10084000BB61BB69B3FA83F3DBB25B00796801FA81
:1008500003F31A43FB689A6000BF2437BD465DF876
:10086000047B704780B489B000AFF860B9607A60EB
:10087000FB68DA68BB687B617B6993FAA3F33B6131
:100880003B69B3FA83F3DBB25B00032101FA03F3A4
:10089000DB431A40BB68FB61FB6993FAA3F3BB61BE
:1008A000BB69B3FA83F3DBB25B00796801FA03F347
:1008B0001A43FB68DA6000BF2437BD465DF8047B4D
:1008C000704780B489B000AFF860B9607A60FB68A7
:1008D0001A6ABB687B617B6993FAA3F33B613B694E
:1008E000B3FA83F3DBB29B000F2101FA03F3DB437E
:1008F0001A40BB68FB61FB6993FAA3F3BB61BB6958
:10090000B3FA83F3DBB29B00796801FA03F31A436D
:10091000FB681A6200BF2437BD465DF8047B704750
:1009200080B489B000AFF860B9607A60FB685A6A39
:10093000BB681B0A7B617B6993FAA3F33B613B694C
:10094000B3FA83F3DBB29B000F2101FA03F3DB431D
:100950001A40BB681B0AFB61FB6993FAA3F3BB61F6
:10096000BB69B3FA83F3DBB29B00796801FA03F346
:100970001A43FB685A6200BF2437BD465DF8047B0A
:100980007047000080B483B000AF7860054B1A69EF
:1009900004497B6813430B6100BF0C37BD465DF80B
:1009A000047B70470038024080B483B000AF7860A9
:1009B000064B1A697B68DB43044913400B6100BF97
:1009C0000C37BD465DF8047B704700BF003802401D
:1009D00080B584B000AF78600023FB737B68354A34
:1009E000934206D10120FFF7CDFF0120FFF7DCFF86
:1009F0005BE07B68304A934206D10220FFF7C2FFDA
:100A00000220FFF7D1FF50E07B682C4A934206D1C9
:100A10000420FFF7B7FF0420FFF7C6FF45E07B681F
:100A2000274A934206D10820FFF7ACFF0820FFF7C2
:100A3000BBFF3AE07B68234A934206D11020FFF7C0
:100A4000A1FF1020FFF7B0FF2FE07B681E4A934202
:100A500006D12020FFF796FF2020FFF7A5FF24E016
:100A60007B681A4A934206D14020FFF78BFF402053
:100A7000FFF79AFF19E07B68154A934206D1802060
:100A8000FFF780FF8020FFF78FFF0EE07B68114AA1
:100A9000934208D14FF48070FFF774FF4FF48070D9
:100AA000FFF782FF01E00123FB73FB7B1846103741
:100AB000BD4680BD00000240000402400008024024
:100AC000000C0240001002400014024000180240D6
:100AD000001C02400020024080B588B000AF786062
:100AE00039600023FB610023BB613B681B687B61AD
:100AF0007B6993FAA3F33B613B69B3FA83F3DBB2FF
:100B0000FB6150E03B681A680121FB6901FA03F3BD
:100B10001340BB61BB69002B42D03B685B68012B73
:100B200003D03B685B68022B0DD13B689B681A467B
:100B3000B9697868FFF767FE3B68DB681A46B969F0
:100B40007868FFF748FE3B681B691A46B969786800
:100B5000FFF788FE3B685B68022B1AD1BB69FB601C
:100B6000FB6893FAA3F3BB60BB68B3FA83F3DBB211
:100B7000072B07D83B685B691A46B9697868FFF7A5
:100B8000A0FE06E03B685B691A46B9697868FFF722
:100B9000C7FE3B685B681A46B9697868FFF7ECFDE9
:100BA000FB690133FB613B681A68FB6922FA03F3B6
:100BB000002BA7D1002318462037BD4680BD80B446
:100BC00083B000AF78607B684FF6FF721A607B6875
:100BD00003225A607B6800229A607B680022DA60F8
:100BE0007B6800221A617B6800225A6100BF0C37C3
:100BF000BD465DF8047B704780B400AF054B1B68B1
:100C0000044A43F00103136000BFBD465DF8047B56
:100C1000704700BF0038024080B400AF064B1B682D
:100C200003F00203022B0CBF01230023DBB21846A2
:100C3000BD465DF8047B70470038024080B483B045
:100C400000AF7860074B1B6823F0F8027B68DB007D
:100C5000044913430B6000BF0C37BD465DF8047BAD
:100C6000704700BF0038024080B400AF044B9B685F
:100C700003F00C031846BD465DF8047B704700BFC7
:100C80000038024080B400AF044B9B6803F0F003CF
:100C90001846BD465DF8047B704700BF003802402F
:100CA00080B400AF044B9B6803F4E0531846BD4684
:100CB0005DF8047B704700BF0038024080B400AF8D
:100CC000044B9B6803F460431846BD465DF8047B03
:100CD000704700BF0038024080B483B000AF786036
:100CE000044B9A687B68134018460C37BD465DF884
:100CF000047B70470038024080B400AF074B1B688C
:100D000003F00073B3F1007F0CBF01230023DBB2BB
:100D10001846BD465DF8047B704700BF00380240AE
:100D200080B400AF044B5B6803F480031846BD46F3
:100D30005DF8047B704700BF0038024080B400AF0C
:100D4000044B5B689B09C3F308031846BD465DF876
:100D5000047B70470038024080B400AF044B5B68EE
:100D600003F440331846BD465DF8047B704700BF6E
:100D70000038024080B400AF044B5B6803F070633E
:100D80001846BD465DF8047B704700BF003802403E
:100D900080B400AF044B5B6803F03F031846BD46C8
:100DA0005DF8047B704700BF0038024080B400AF9C
:100DB000074B1B6803F00063B3F1006F0CBF012306
:100DC0000023DBB21846BD465DF8047B704700BFC8
:100DD0000038024080B400AF054BD3F884309B0943
:100DE000C3F308031846BD465DF8047B704700BF97
:100DF0000038024080B400AF044BD3F8843003F0D5
:100E0000E0431846BD465DF8047B70470038024059
:100E100080B400AF044B5B6803F03F031846BD4647
:100E20005DF8047B704700BF0038024080B400AF1B
:100E3000044B5B6803F480031846BD465DF8047BF1
:100E4000704700BF0038024080B582B000AFFFF7A6
:100E5000D3FE00BFFFF7E0FE0346012BFAD1264B7D
:100E600000229A60244B1B687B607B6823F08673AA
:100E700023F480337B607B6823F080637B601E4AB1
:100E80007B6813601020FFF7D9FE00BFFFF734FF27
:100E90000346002BFAD1184B184A5A60164B184AD1
:100EA000C3F88420144BDB68134A23F4F853D3604F
:100EB000114BDB68104A23F40053D3600E4BDB6800
:100EC0000D4A43F41F03D3600B4BDB680A4A43F41B
:100ED0000013D360084B5B6F074A23F0010353678D
:100EE000054B5B6F044A43F0807353670023184639
:100EF0000837BD4680BD00BF0038024010300024D6
:100F00000030002080B582B000AF786000F084F837
:100F100002467B681A607B681B68184600F0A4F8DC
:100F200002467B685A607B685B68184600F0B2F83E
:100F300002467B689A607B685B68184600F0BEF8E2
:100F400002467B68DA6000BF0837BD4680BD0000FE
:100F500080B584B000AF78600023FB607B68B3F598
:100F6000000F11D17868FFF7B7FE0346002B08D1B8
:100F7000FFF71CFF0346002B08D000F025F9F860AE
:100F800004E0054BFB6002E000BF00E000BFFB682F
:100F900018461037BD4680BD0080BB0080B584B0C8
:100FA00000AF78600023FB607B68B3F1706F07D1FE
:100FB000FFF7A2FE0346002B02D000F0D1F8F86044
:100FC000FB6818461037BD4680BD80B584B000AFC1
:100FD00078600023FB60FFF78FFE0346002B02D0F2
:100FE00000F0BEF8F860FB6818461037BD4680BDBB
:100FF00080B584B000AF78600023FB60FFF77CFE13
:101000000346002B02D000F0ABF8F860FB681846EE
:101010001037BD4680BD000080B582B000AF002310
:101020007B60FFF721FE0346082B0CD0082B0FD85E
:10103000002B02D0042B03D00AE0094B7B600AE0AE
:10104000084B7B6007E0082000F04CF8786002E075
:10105000034B7B6000BF7B6818460837BD4680BDE8
:101060000024F40040787D0180B582B000AF786044
:10107000FFF708FE03461B0903F00F03044AD35C85
:101080001A467B68D34018460837BD4680BD00BF6E
:101090009434000880B582B000AF7860FFF700FE9E
:1010A00003469B0A044AD35C1A467B68D340184621
:1010B0000837BD4680BD00BFA434000880B582B0AB
:1010C00000AF7860FFF7FAFD03465B0B044AD35C80
:1010D0001A467B68D34018460837BD4680BD00BF1E
:1010E000A434000890B587B000AF786000237B611E
:1010F0000023FB6000233B61FFF712FEF860FB68F2
:10110000002B04D0FB68B3F5800F03D005E0124B31
:101110007B6105E0114B7B6102E00F4B7B6100BFFF
:101120007B68082B13D1FFF733FE02467B69B3FBC4
:10113000F2F4FFF703FE034603FB04F4FFF70CFE93
:1011400003461B0C01335B00B4FBF3F33B613B69CB
:1011500018461C37BD4690BD0024F40040787D0140
:1011600090B583B000AF00237B6000233B60FFF7A6
:10117000D7FD38603B68002B04D03B68B3F5800F87
:1011800003D005E00E4B7B6005E00E4B7B6002E078
:101190000B4B7B6000BFFFF7FBFD02467B68B3FB98
:1011A000F2F4FFF7CBFD034603FB04F4FFF7E2FD87
:1011B00003461B0EB4FBF3F318460C37BD4690BD37
:1011C0000024F40040787D0190B585B000AF002385
:1011D000FB600023BB6000237B60FFF727FEB86045
:1011E000BB68B3F5800F02D10E4BFB6002E00E4BE3
:1011F000FB6000BFFFF70CFE0246FB68B3FBF2F496
:10120000FFF7E8FD034603FB04F4FFF7F3FD034695
:101210001B0FB4FBF3F37B607B6818461437BD46A5
:1012200090BD00BF40787D010024F40080B483B0FD
:1012300000AF786039607A683B68B2FBF3F3074A25
:10124000013B5360054B00229A60044B05221A6053
:1012500000BF0C37BD465DF8047B704710E000E02E
:1012600080B400AF054B1B68044A43F4802313602D
:1012700000BFBD465DF8047B704700BF00380240E8
:1012800080B400AF054B1B68044A23F4802313602D
:1012900000BFBD465DF8047B704700BF00380240C8
:1012A00080B400AF054B1B68044A43F480331360DD
:1012B00000BFBD465DF8047B704700BF00380240A8
:1012C00080B400AF074B1B6803F40033B3F5003F55
:1012D0000CBF01230023DBB21846BD465DF8047B3A
:1012E000704700BF0038024080B400AF054B1B6858
:1012F000044A43F00103136000BFBD465DF8047B60
:10130000704700BF0038024080B400AF064B1B6836
:1013100003F00203022B0CBF01230023DBB21846AB
:10132000BD465DF8047B70470038024080B483B04E
:1013300000AF7860064B9B6823F0030204497B688A
:1013400013438B6000BF0C37BD465DF8047B7047CC
:101350000038024080B400AF044B9B6803F00C03DC
:101360001846BD465DF8047B704700BF0038024058
:1013700080B483B000AF7860064B9B6823F0F00226
:1013800004497B6813438B6000BF0C37BD465DF892
:10139000047B70470038024080B483B000AF7860AF
:1013A000064B9B6823F4E05204497B6813438B602F
:1013B00000BF0C37BD465DF8047B70470038024023
:1013C00080B483B000AF7860064B9B6823F4604222
:1013D00004497B6813438B6000BF0C37BD465DF842
:1013E000047B70470038024080B400AF054B1B6897
:1013F000044A43F08073136000BFBD465DF8047B70
:10140000704700BF0038024080B400AF074B1B6834
:1014100003F00073B3F1007F0CBF01230023DBB2A4
:101420001846BD465DF8047B704700BF0038024097
:1014300080B485B000AFF860B9607A603B600D4B56
:101440005A680D4B1340F968BA6811437A689201E3
:101450000A43084913434B60064B5B6823F4403250
:1014600004493B6813434B6000BF1437BD465DF829
:10147000047B7047003802400080BFFF80B400AF9B
:10148000074B1B6803F00063B3F1006F0CBF01232F
:101490000023DBB21846BD465DF8047B704700BFF1
:1014A0000038024080B483B000AF7860064B1B6800
:1014B00023F0070204497B6813430B6000BF0C371D
:1014C000BD465DF8047B7047003C024080B400AF2D
:1014D000044B1B6803F007031846BD465DF8047B08
:1014E000704700BF003C024080B400AF044B1B6853
:1014F00003F480431846BD465DF8047B704700BF87
:101500000070004080B582B000AF78604FF47A710F
:101510007868FFF78BFE00BF0837BD4680BD00002E
:1015200080B485B000AF78600F4B1B68FB60FB6830
:101530007B68B3F1FF3F0CD07B6801337B6008E030
:10154000094B1B6803F48033002B02D07B68013BFE
:101550007B607B68002BF3D100BF00BF1437BD4612
:101560005DF8047B704700BF10E000E080B483B0FA
:1015700000AF7860044A7B68136000BF0C37BD463B
:101580005DF8047B704700BF3404002080B586B04E
:1015900000AF786000233B610023FB737B68002B66
:1015A00002D10123FB7378E0FFF79EFF0346B3F5FA
:1015B000804F2DD17B683B4A934204D93B69002B75
:1015C00001D105233B617B68374A934204D93B69CB
:1015D000002B01D104233B617B68344A934204D938
:1015E0003B69002B01D103233B617B68304A934266
:1015F00005D93B69002B02D102233B6108E07B68DF
:101600002C4A934204D93B69002B01D101233B6151
:10161000FFF76AFF0346002B24D17B68264A9342DA
:1016200004D93B69002B01D104233B617B681F4A2D
:10163000934204D93B69002B01D103233B617B68B2
:101640001B4A934205D93B69002B02D102233B611F
:1016500008E07B68174A934204D93B69002B01D10B
:1016600001233B613869FFF71DFF02237B61FFF710
:101670002DFFB8607B69013B7B61BA683B699A4288
:1016800002D07B69002BF2D1BA683B699A4202D042
:101690000123FB7301E00023FB73FB7B1846183723
:1016A000BD4680BD80D1F008000E2707804A5D0549
:1016B0000087930380C3C901001BB70080B584B0C5
:1016C00000AF786039600023FB730023BB6000F03B
:1016D00098F80346002B21D17968144800F06AF885
:1016E000B860FFF711FE0346012B07D0FFF7FCFDA2
:1016F00000BFFFF709FE0346012BFAD17B6819688A
:101700007B685A687B689B680020FFF791FE396808
:10171000B86800F08FF80346FB7301E00123FB7308
:10172000FB7B18461037BD4680BD00BF0024F40087
:1017300080B586B000AFF860B9607A603B60002386
:10174000FB7500233B6100F05CF80346002B2AD1B7
:101750007968F86800F02EF83861FFF7B1FD0346AC
:10176000012B0FD0BB68012B02D1FFF779FD01E0FF
:10177000FFF786FDFFF794FD00BFFFF7A1FD0346CD
:10178000012BFAD17B6819687B685A687B689B6873
:101790004FF48000FFF74CFE3968386900F04AF8D2
:1017A0000346FB7501E00123FB75FB7D18461837E6
:1017B000BD4680BD80B485B000AF7860396000233D
:1017C000FB603B681B6803F03F037A68B2FBF3F3EE
:1017D000FB603B685B68C3F30802FB6802FB03F332
:1017E000FB603B689B681B0C01335B00FA68B2FB33
:1017F000F3F3FB60FB6818461437BD465DF8047BC5
:10180000704780B582B000AF0023FB71FFF7FCFD8D
:101810000346002B01D00123FB71FFF72FFE034687
:10182000002B01D00123FB71FB7918460837BD4618
:1018300080BD000080B584B000AF786039600023BF
:10184000FB730023BB603B681B681B0903F00F039D
:10185000234AD35C1A467B68D340BB60214B1B688C
:10186000BA689A4204D9B868FFF790FE0346FB7342
:10187000FB7B002B1FD1FFF7B7FD00BFFFF7C4FDB7
:101880000346012BFAD13B681B681846FFF770FD31
:101890000220FFF74BFD00BFFFF75CFD0346082B5E
:1018A000FAD13B685B681846FFF776FD3B689B689A
:1018B0001846FFF785FD0B4B1B68BA689A4204D2A5
:1018C000B868FFF763FE0346FB73FB7B002B02D176
:1018D000B868FFF74BFEFB7B18461037BD4680BD4E
:1018E000943400083404002080B483B000AF7860E2
:1018F000054B1A6804497B6813430B6000BF0C3723
:10190000BD465DF8047B7047003C014080B483B065
:1019100000AF7860064B1A687B68DB4304491340CC
:101920000B6000BF0C37BD465DF8047B704700BFFD
:10193000003C014080B483B000AF7860054B5A682A
:1019400004497B6813434B6000BF0C37BD465DF80C
:10195000047B7047003C014080B483B000AF7860E6
:10196000064B5A687B68DB43044913404B6000BF59
:101970000C37BD465DF8047B704700BF003C01405A
:1019800080B483B000AF7860054B9A6804497B68E7
:1019900013438B6000BF0C37BD465DF8047B704776
:1019A000003C014080B483B000AF7860064B9A6879
:1019B0007B68DB43044913408B6000BF0C37BD4696
:1019C0005DF8047B704700BF003C014080B483B0E9
:1019D00000AF7860054BDA6804497B681343CB603D
:1019E00000BF0C37BD465DF8047B7047003C0140EA
:1019F00080B483B000AF7860064BDA687B68DB4365
:101A000004491340CB6000BF0C37BD465DF8047B32
:101A1000704700BF003C014080B400AF0C4B002277
:101A20001A600B4B00225A60094B00229A60084B47
:101A30000022DA60064B00221A61054B6FF07F42EC
:101A40005A6100231846BD465DF8047B704700BF0D
:101A5000003C014080B584B000AF78600023FB7388
:101A60007B681B79002B65D07B681B68002B6CD0D2
:101A70007B685B79022B1CD0022B25DC002B02D06B
:101A8000012B0BD020E07B681B681846FFF764FF32
:101A90007B681B681846FFF727FF18E07B681B6808
:101AA0001846FFF733FF7B681B681846FFF742FFB5
:101AB0000DE07B681B681846FFF716FF7B681B6804
:101AC0001846FFF737FF02E00123FB7300BF7B6876
:101AD0009B79002B39D07B689B79032B1CD0032B7F
:101AE00025DC012B02D0022B0BD020E07B681B6889
:101AF0001846FFF77DFF7B681B681846FFF740FF1D
:101B000024E07B681B681846FFF74CFF7B681B6866
:101B10001846FFF75BFF19E07B681B681846FFF764
:101B20002FFF7B681B681846FFF750FF0EE001236C
:101B3000FB730BE07B681B681846FFF7E7FE7B68CA
:101B40001B681846FFF708FF00E000BFFB7B184644
:101B50001037BD4680BD80B483B000AF78607B682D
:101B600000221A607B6800221A717B6800225A7179
:101B70007B6802229A7100BF0C37BD465DF8047B7A
:101B8000704780B483B000AF78607B68DB6803F493
:101B90000053B3F5005F0CBF01230023DBB21846EE
:101BA0000C37BD465DF8047B704780B483B000AF4E
:101BB00078607B681B6923F400627B681A6100BF50
:101BC0000C37BD465DF8047B704780B483B000AF2E
:101BD000786039607B681B6923F440523B681A4384
:101BE0007B681A6100BF0C37BD465DF8047B704707
:101BF00080B483B000AF786039607B685B6923F4A0
:101C000040723B681A437B685A6100BF0C37BD467F
:101C10005DF8047B704700002DE9B04FC0B000AF05
:101C2000C7F8FC00C7F8F810C7F8F420C7F8F03080
:101C3000D7F8F430B3F5004F40F00C81D7F8F83006
:101C40000022C7F8E830C7F8EC20D7E93A45224629
:101C50002B46911839665B417B66D7E918232146EC
:101C600012EB0108294643EB01094FF000024FF047
:101C700000034FEAC90343EA58734FEAC80290468B
:101C80009946234618EB0303C7F8E0302B4649EB8F
:101C90000303C7F8E430D7F8F03000229A469346A1
:101CA0001AEB0A03BB654BEB0B03FB65D7E9162365
:101CB000D7E93801FEF702FA02460B46644BA3FB54
:101CC00002235B099BB21B019CB2D7F8F8300022BB
:101CD000C7F8D830C7F8DC20D7E9368942464B46EA
:101CE000911839655B417B65D7E91423414651184A
:101CF000B96449464B41FB644FF000024FF00003CA
:101D0000D7E912AB5946CB00514643EA51735146CD
:101D1000CA0010461946034642469B18C7F8D03001
:101D20004B460A4642EB0303C7F8D430D7F8F030ED
:101D30000022C7F8C830C7F8CC20D7E932120B46CA
:101D4000DB183B64134642EB03037B64D7E91023A3
:101D5000D7E93401FEF7B2F902460B4611463C4B77
:101D6000A3FB01235B09642202FB03F3CB1ADB0014
:101D700003F13202364BA3FB02235B099BB25B00EB
:101D80009BB203F4F8739BB223449CB2D7F8F830AB
:101D90000022C7F8C030C7F8C420D7E930894246CE
:101DA0004B469118B9635B41FB63D7E90E2341466B
:101DB0005118396349464B417B634FF000024FF0A5
:101DC0000003D7E90CAB5946CB00514643EA5173A7
:101DD0005146CA0010461946034642469B18C7F8AA
:101DE000B8304B460A4642EB0303C7F8BC30D7F87D
:101DF000F0300022C7F8B030C7F8B420D7E92C1271
:101E00000B46DB18BB62134642EB0303FB62D7E9C8
:101E10000A23D7E92E01FEF751F902460B460C4B77
:101E2000A3FB02135B09642101FB03F3D31ADB005C
:101E30003233074AA2FB03235B099BB203F007037B
:101E40009BB223449BB21A46D7F8FC309A6007E154
:101E50001F85EB51D7F8F8300022C7F8A830C7F833
:101E6000AC20D7E92A8942464B46911839625B413A
:101E70007B62D7E9082341465418494643EB0105E4
:101E80004FF000024FF00003EB0043EA5473E2000E
:101E900014461D464346E318C7F8A0304B4645EBB1
:101EA0000303C7F8A430D7F8F0300022C7F8983001
:101EB000C7F89C204FF000024FF00003D7E92645F9
:101EC00029468B00214643EA917321468A00D7E9CF
:101ED0002801FEF7F3F802460B46644BA3FB0223EE
:101EE0005B099BB21B019CB2D7F8F8300022C7F8FF
:101EF0009030C7F89420D7E9248942464B46911880
:101F0000B9615B41FB61D7E906234146511839614C
:101F100049464B417B614FF000024FF00003D7E987
:101F200004AB5946CB00514643EA51735146CA00AF
:101F300010461946034642469B18C7F888304B4660
:101F40000A4642EB0303C7F88C30D7F8F030002282
:101F5000C7F88030C7F884204FF000024FF000032C
:101F6000D7E9208949468B00414643EA91734146AF
:101F70008A00D7E92201FEF7A1F802460B463B4B47
:101F8000A3FB02135B09642101FB03F3D31A1B01BA
:101F90003233364AA2FB03235B099BB203F0F00302
:101FA0009BB223449CB2D7F8F8300022BB67FA6793
:101FB000D7E91E8942464B469118B9605B41FB60E8
:101FC000D7E9022341465118396049464B417B60AD
:101FD0004FF000024FF00003D7E900AB5946CB00A9
:101FE000514643EA51735146CA001046194603460A
:101FF00042469B183B674B460A4642EB03037B670E
:10200000D7F8F0300022BB66FA664FF000024FF0BE
:102010000003D7E91A8949468B00414643EA917388
:1020200041468A00D7E91C01FEF748F802460B46F4
:102030000E4BA3FB02135B09642101FB03F3D31ACC
:102040001B013233094AA2FB03235B099BB203F055
:102050000F039BB223449BB21A46D7F8FC309A6018
:1020600000BF07F58077BD46BDE8B08F1F85EB51F7
:1020700080B483B000AF7860054B1A6A04497B686E
:1020800013430B6200BF0C37BD465DF8047B7047FD
:102090000038024080B483B000AF7860064B1A6A03
:1020A0007B68DB43044913400B6200BF0C37BD461D
:1020B0005DF8047B704700BF0038024080B483B0F5
:1020C00000AF7860054B5A6A04497B6813434B6242
:1020D00000BF0C37BD465DF8047B704700380240F6
:1020E00080B483B000AF7860064B5A6A7B68DB43EC
:1020F000044913404B6200BF0C37BD465DF8047BBA
:10210000704700BF0038024080B584B000AF7860EF
:102110000023FB737B68284A934206D11020FFF707
:10212000CDFF1020FFF7DCFF40E07B68234A93429D
:1021300008D14FF40030FFF79BFF4FF40030FFF75A
:10214000A9FF33E07B681E4A934208D14FF48020F8
:10215000FFF78EFF4FF48020FFF79CFF26E07B689F
:10216000184A934206D12020FFF7A8FF2020FFF74E
:10217000B7FF1BE07B68144A934208D14FF400205C
:10218000FFF776FF4FF40020FFF784FF0EE07B6837
:102190000E4A934208D14FF48010FFF769FF4FF4C5
:1021A0008010FFF777FF01E00123FB73FB7B1846EC
:1021B0001037BD4680BD00BF001001400044004004
:1021C0000048004000140140004C00400050004016
:1021D00080B588B000AF786039600123FB770023B9
:1021E000BB617868FFF7CDFC0346002B5ED17B68AE
:1021F000DB6823F4164323F00C033A6851683A680D
:10220000D26811433A68126911433A6892690A43E5
:102210001A437B68DA603B689B6819467868FFF769
:10222000D4FC3B685B6919467868FFF7E1FC07F16D
:1022300008031846FEF766FE7B681F4A934202D1E8
:102240007B69BB6121E07B681C4A934202D13B69F8
:10225000BB611AE07B681A4A934202D13B69BB61B9
:1022600013E07B68174A934202D17B69BB610CE0A3
:102270007B68154A934202D13B69BB6105E07B68EC
:10228000124A934201D13B69BB61BB69002B0DD05F
:102290003B681B68002B09D00023FB773B689A69D9
:1022A0003B681B68B9697868FFF7B6FCFB7F184686
:1022B0002037BD4680BD00BF0010014000440040F3
:1022C0000048004000140140004C00400050004015
:1022D00080B483B000AF78607B684FF416521A6008
:1022E0007B6800225A607B6800229A607B6800222B
:1022F000DA607B680C221A617B6800225A617B6875
:1023000000229A6100BF0C37BD465DF8047B704720
:1023100080B584B000AF786039600023FB737868C3
:10232000FFF72FFC0346002B19D13B681B68002BDD
:1023300003D17868FFF739FC13E07B681B6923F44D
:1023400070623B6859683B689B6819433B68DB686F
:102350000B43134343F400627B681A6101E00123DD
:10236000FB73FB7B18461037BD4680BD80B483B03D
:1023700000AF78607B6800221A607B6800225A6098
:102380007B6800229A607B680022DA6000BF0C370D
:10239000BD465DF8047B704780B483B000AF7860C1
:1023A00039600C4A3B6813441B781A467B68134417
:1023B0001B6808493A680A44127811467A680A4448
:1023C00023F00103136000BF0C37BD465DF8047BAA
:1023D000704700BF7C34000880B485B000AFF8605F
:1023E000B9607A600E4ABB6813441B781A46FB68D2
:1023F00013441B6823F45F3323F478730849BA68E5
:102400000A4412781146FA680A4411467A6813435E
:102410000B6000BF1437BD465DF8047B704700BFFA
:102420007C34000880B485B000AFF860B9607A6091
:102430000D4ABB6813441B781A46FB6813445B685B
:102440001B0C1B040849BA680A4412781146FA6842
:102450000A4411467A6813434B6000BF1437BD46E7
:102460005DF8047B704700BF7C34000880B485B001
:1024700000AFF860B9607A600D4ABB6813441B78FE
:102480001A46FB6813441B6823F060620849BB6866
:102490000B441B781946FB680B4419467B681343B1
:1024A0000B6000BF1437BD465DF8047B704700BF6A
:1024B0007C34000880B485B000AFF860B9607A6001
:1024C0000D4ABB6813441B781A46FB6813441B680B
:1024D00023F0C0720849BB680B441B781946FB689F
:1024E0000B4419467B6813430B6000BF1437BD468D
:1024F0005DF8047B704700BF7C34000880B485B071
:1025000000AFF860B9607A600D4ABB6813441B786D
:102510001A46FB6813441B6823F4C0020849BB68D1
:102520000B441B781946FB680B4419467B68134320
:102530000B6000BF1437BD465DF8047B704700BFD9
:102540007C34000880B485B000AFF860B9607A6070
:102550003B600E4ABB6813441B781A46FB68134461
:102560005B6923F0070279683B680B430748B96849
:10257000014409780846F968014413434B6100BFE0
:102580001437BD465DF8047B704700BF7C340008FB
:1025900080B485B000AFF860B9607A60074ABB6864
:1025A00013441B781A46FB6813441A467B68D360B1
:1025B00000BF1437BD465DF8047B70477C340008CB
:1025C00080B485B000AFF860B9607A60074ABB6834
:1025D00013441B781A46FB6813441A467B689360C1
:1025E00000BF1437BD465DF8047B70477C3400089B
:1025F00080B483B000AF7860054B1A6904497B68EA
:1026000013430B6100BF0C37BD465DF8047B704778
:102610000038024080B483B000AF7860064B1A697E
:102620007B68DB43044913400B6100BF0C37BD4698
:102630005DF8047B704700BF0038024080B584B06D
:1026400000AF786039608B4BBB600023FB733B6845
:1026500013F5803F1CD17B68874A934208D14FF421
:102660000010FFF7C5FF4FF40010FFF7D3FF27E17D
:102670007B68824A934208D14FF48000FFF7B8FF8D
:102680004FF48000FFF7C6FF1AE10123FB7317E147
:1026900039687868FFF780FE7B68774A934203D1F8
:1026A0003B68002B00F08E807B68744A934203D114
:1026B0003B68002B00F083807B686F4A934202D115
:1026C0003B68012B78D07B686C4A934202D13B680F
:1026D000012B6ED07B68684A934202D13B68022B83
:1026E00064D07B68654A934202D13B68022B5AD082
:1026F0007B68614A934202D13B68032B50D07B68D0
:102700005E4A934202D13B68032B46D07B685A4A0B
:10271000934202D13B68042B3CD07B68574A9342DA
:1027200002D13B68042B32D07B68534A934202D1DA
:102730003B68052B28D07B68504A934202D13B6806
:10274000052B1ED07B684C4A934202D13B68062B76
:1027500014D07B68494A934202D13B68062B0AD0C9
:102760007B68454A934204D13B68072B01D1444B17
:1027700003E0444B01E0444B02E001E0434B02E044
:1027800001E0434B02E001E0424B02E001E0424B3A
:1027900002E001E0414B02E001E0414B02E001E0D8
:1027A000404B02E001E0404B02E001E03F4B02E021
:1027B00001E03F4B02E001E03E4B02E001E03E4B16
:1027C00001E000E02B4BBB60BB6800221A60BB68D5
:1027D00000225A60BB6800229A60BB680022DA605F
:1027E000BB6800221A61BB6821225A610022396845
:1027F0007868FFF73BFE3B68002B03D17B683F22E4
:102800009A605DE03B68012B04D17B684FF47462F1
:102810009A6055E03B68022B04D17B684FF47C1230
:102820009A604DE03B68032B04D17B684FF07462E3
:102830009A6045E03B68042B03D17B683F22DA6055
:102840003EE03B68052B04D17B684FF47462DA608C
:1028500036E03B68062B04D17B684FF47C12DA60CB
:102860002EE03B68072B29D17B684FF07462DA6059
:1028700026E000BF10600240006002400064024099
:10288000B8600240B8640240A0640240A060024008
:1028900088640240886002407064024070600240B8
:1028A0005864024058600240406402404060024068
:1028B0002864024028600240106402400123FB7338
:1028C000FB7B18461037BD4680BD00BF80B584B085
:1028D00000AFF860B9607A607B689A687B68DB68F3
:1028E0001A437B681B691A437B685B691A437B68E0
:1028F0009B691A437B68DB691A437B689B6A1343B5
:102900001A46B968F868FFF767FD7B68DB6A002B39
:1029100015D07B68DA6A7B681B6BB968F868FFF7CB
:1029200011FE7B685B6B1A46B968F868FFF7C2FD59
:102930007B689B6B1A46B968F868FFF7DFFD7B6818
:102940005B681A46B968F868FFF722FE7B681B6867
:102950001A46B968F868FFF733FE7B681B6A1A46A7
:10296000B968F868FFF75EFD7B685B6A1A46B9686C
:10297000F868FFF77BFD002318461037BD4680BD81
:1029800080B483B000AF78607B6800221A607B68F7
:1029900000225A607B6800229A607B680022DA601D
:1029A0007B6800221A617B6800225A617B680022E2
:1029B0009A617B680022DA617B6800221A627B6878
:1029C00000225A627B6800229A627B680022DA62E7
:1029D0007B6800221A637B6800225A637B680022AE
:1029E0009A6300BF0C37BD465DF8047B704700005A
:1029F00080B485B000AF78607B6803F00703FB60AC
:102A00000C4BDB68BB60BA684FF6FF031340BB603A
:102A1000FB681A02BB68134343F0BF6343F40033FF
:102A2000BB60044ABB68D36000BF1437BD465DF885
:102A3000047B704700ED00E080B400AF044BDB681E
:102A40001B0A03F007031846BD465DF8047B704778
:102A500000ED00E080B483B000AF03463960FB7145
:102A600097F90730002B0ADB3B68DAB20C4997F97B
:102A700007301201D2B20B4483F800230AE03B680E
:102A8000DAB20849FB7903F00F03043B1201D2B21A
:102A90000B441A7600BF0C37BD465DF8047B7047C7
:102AA00000E100E000ED00E080B489B000AFF86024
:102AB000B9607A60FB6803F00703FB61FB69C3F14F
:102AC0000703042B28BF0423BB61FB690433062BD7
:102AD00002D9FB69033B00E000237B614FF0FF322A
:102AE000BB6902FA03F3DA43BB681A407B699A4078
:102AF0004FF0FF317B6901FA03F3D9437B680B4048
:102B0000134318462437BD465DF8047B7047000028
:102B100080B400AF054B1B68044A43F00103136007
:102B200000BFBD465DF8047B704700BF003802401F
:102B300080B483B000AF7860074B1B6823F0F802C5
:102B40007B68DB00044913430B6000BF0C37BD46B4
:102B50005DF8047B704700BF0038024080B483B04A
:102B600000AF7860064B9B6823F0030204497B6842
:102B700013438B6000BF0C37BD465DF8047B704784
:102B80000038024080B400AF044B9B6803F00C0394
:102B90001846BD465DF8047B704700BF0038024010
:102BA00080B483B000AF7860064B9B6823F0F002DE
:102BB00004497B6813438B6000BF0C37BD465DF84A
:102BC000047B70470038024080B483B000AF786067
:102BD000064B9B6823F4E05204497B6813438B60E7
:102BE00000BF0C37BD465DF8047B704700380240DB
:102BF00080B483B000AF7860064B9B6823F46042DA
:102C000004497B6813438B6000BF0C37BD465DF8F9
:102C1000047B70470038024080B485B000AF786014
:102C2000084B1A6B07497B6813430B63054B1A6B00
:102C30007B681340FB60FB6800BF1437BD465DF83E
:102C4000047B70470038024080B485B000AF7860E4
:102C5000084B1A6C07497B6813430B64054B1A6CCD
:102C60007B681340FB60FB6800BF1437BD465DF80E
:102C7000047B70470038024080B485B000AF7860B4
:102C8000084B5A6C07497B6813434B64054B5A6CDD
:102C90007B681340FB60FB6800BF1437BD465DF8DE
:102CA000047B70470038024080B483B000AF786086
:102CB000064B1B6823F0070204497B6813430B6033
:102CC00000BF0C37BD465DF8047B7047003C0240F6
:102CD00080B400AF044B1B6803F007031846BD46E1
:102CE0005DF8047B704700BF003C024080B483B0B5
:102CF00000AF7860064B1B6823F4804204497B6870
:102D000013430B6000BF0C37BD465DF8047B704772
:102D10000070004080B483B000AF78607B68DB68EF
:102D200043F400527B68DA6000BF0C37BD465DF8A3
:102D3000047B704780B483B000AF786039607B68F3
:102D4000DB6823F400623B681A437B68DA6000BFEB
:102D50000C37BD465DF8047B704780B483B000AF8C
:102D600078607B681B6923F490427B681A617B68FA
:102D70005B6923F02A027B685A6100BF0C37BD46AD
:102D80005DF8047B704780B483B000AF78607B68E7
:102D90001B6923F490427B681A617B685B6923F0AE
:102DA0002A027B685A6100BF0C37BD465DF8047B80
:102DB000704780B483B000AF78607B681B6803F015
:102DC0002003202B0CBF01230023DBB218460C3755
:102DD000BD465DF8047B704780B483B000AF786077
:102DE0007B681B6803F04003402B0CBF01230023CA
:102DF000DBB218460C37BD465DF8047B704780B4E3
:102E000083B000AF78607B681B6803F08003802B81
:102E10000CBF01230023DBB218460C37BD465DF81A
:102E2000047B704780B483B000AF78607B685B68D8
:102E3000DBB218460C37BD465DF8047B704780B4A2
:102E400083B000AF78600B46FB70FA787B685A60FD
:102E500000BF0C37BD465DF8047B704780B582B07B
:102E600000AF0023FB804FF48040FFF705FF4FF0D9
:102E70008050FFF7E9FE0320FFF7BAFDFFF7DCFD06
:102E8000034600220F211846FFF70EFE034619469F
:102E90004FF0FF30FFF7DEFD00F012F800F034F9DC
:102EA00000F090F800F03EF900F0DCF800233B6001
:102EB00000233B71014800F0B1F9FBE74C340008F6
:102EC00080B500AF0020FFF7EFFE00BFFFF700FF67
:102ED0000346002BFAD14FF48040FFF707FF102084
:102EE000FFF726FEFFF714FE0020FFF759FE002033
:102EF000FFF76AFE0020FFF77BFE0020FFF72EFEA3
:102F000000BFFFF73FFE0346002BFAD10348FEF750
:102F1000F9FA0248FEF72AFB00BF80BD0024F40046
:102F200080B58EB000AF07F11C0300221A605A6012
:102F30009A60DA601A615A619A613B1D00221A6038
:102F40005A609A60DA601A615A611020FFF794FEA5
:102F50000120FFF761FE4FF4C0637B600223BB607A
:102F60000323FB6000233B6100237B610723BB61DC
:102F70003B1D19461148FDF7AFFD4FF4E133FB61EE
:102F800000233B6200237B620023BB620C23FB62B5
:102F900000237B6307F11C0319460948FFF718F962
:102FA00000210748FFF7C6FE0548FFF7ECFE04487E
:102FB000FFF7B0FE00BF3837BD4680BD00000240BD
:102FC0000010014080B58EB000AF07F11C03002255
:102FD0001A605A609A60DA601A615A619A613B1D00
:102FE00000221A605A609A60DA601A615A614FF4DE
:102FF0000030FFF729FE0120FFF70EFE0C237B6057
:103000000223BB600323FB6000233B6100237B6141
:103010000723BB613B1D19461048FDF75DFD4FF4CA
:10302000E133FB6100233B6200237B620023BB6230
:103030000C23FB6200233B6300237B6307F11C032B
:1030400019460748FFF7C4F80548FFF786FE04480D
:10305000FFF760FE00BF3837BD4680BD000002406C
:103060000044004080B58EB000AF07F11C03002281
:103070001A605A609A60DA601A615A619A613B1D5F
:1030800000221A605A609A60DA601A615A614FF43D
:103090008020FFF7D9FD0220FFF7BEFD4FF440630B
:1030A0007B600223BB600323FB6000233B610023A2
:1030B0007B610723BB613B1D19461148FDF70CFDE1
:1030C0004FF4E133FB6100233B6200237B6200236A
:1030D000BB620C23FB6200233B6300237B6307F18D
:1030E0001C0319460748FFF773F80648FFF735FE3B
:1030F0000448FFF70FFE00BF3837BD4680BD00BF54
:10310000000402400048004080B500AF8020FFF777
:1031100083FD0120FFF780FD0220FFF77DFD00BF4A
:1031200080BD000080B58EB000AF07F11C03002207
:103130001A605A609A60DA601A615A619A613B1D9E
:1031400000221A605A609A60DA601A615A6110208F
:10315000FFF77AFD0120FFF75FFD4FF4C0637B604E
:103160000223BB600323FB6000233B6100237B61E0
:103170000723BB613B1D19461048FDF7ADFC4FF41A
:103180001653FB6100233B6200237B620023BB627A
:103190000C23FB6200233B6300237B6307F11C03CA
:1031A00019460748FFF714F80548FFF7D6FD04480D
:1031B000FFF7B0FD00BF3837BD4680BD00000240BC
:1031C0000010014080B584B000AF786039607B6842
:1031D000FB6012E0FB681B7819460F48FFF72FFED3
:1031E00000BF0D48FFF70BFE0346002BF9D03B68EC
:1031F000013B3B60FB680133FB603B68002BE9D17E
:1032000000BF0548FFF7E8FD0346002BF9D000BFDB
:1032100000BF1037BD4680BD0010014080B582B0B0
:1032200000AF78607868FDF7CBF8034619467868F8
:10323000FFF7C8FF00BF0837BD4680BD80B584B02A
:1032400000AF78600B467B800E48FFF7B2FD034667
:10325000002B13D00023FB810CE00A48FFF7E2FDAE
:1032600003461A467B681A707B6801337B60FB89D2
:103270000133FB81FA897B889A42EED300BF103775
:10328000BD4680BD0010014080B400AF72B600BFE3
:10329000FEE780B400AFFEE780B400AFFEE780B485
:1032A00000AFFEE780B400AFFEE780B400AFFEE7FA
:1032B00080B400AF00BFBD465DF8047B704780B4AA
:1032C00000AF00BFBD465DF8047B704780B400AF1F
:1032D00000BFBD465DF8047B704780B400AF00BFFF
:1032E000BD465DF8047B704780B400AF064BD3F851
:1032F0008830054A43F47003C2F8883000BFBD46E9
:103300005DF8047B704700BF00ED00E080B487B03B
:1033100000AF00233B6100237B610223FB6000239D
:10332000BB6002237B60344B9B6803F00C033B6162
:103330003B69082B11D03B69082B44D83B69002B13
:1033400003D03B69042B04D03DE02C4B2C4A1A607F
:103350003DE02A4B2B4A1A6039E0274B5B689B0DF6
:1033600003F00103BB60244B5B6803F03F037B6009
:10337000BB68002B0CD0234A7B68B2FBF3F31E4AD8
:1033800052689209C2F3080202FB03F37B610BE06F
:103390001B4A7B68B2FBF3F3174A52689209C2F3E7
:1033A000080202FB03F37B61134B5B681B0C03F009
:1033B000030301335B00FB607A69FB68B2FBF3F344
:1033C0000E4A136003E00D4B0D4A1A6000BF0A4B12
:1033D0009B681B0903F00F030B4AD35C3B61074B4F
:1033E0001A683B6922FA03F3044A136000BF1C37D2
:1033F000BD465DF8047B704700380240340400206D
:103400000024F40040787D0194340008000000009E
:10341000F8B500BFF8BC08BC9E467047F8B500BFC1
:08342000F8BC08BC9E46704791
:103428003B3E0B3E103E253E333E033E063E143ED9
:103438000E3E0D3E243E123E273E023E183E093EF9
:103448000A3E000061736461736400003B3E0B3EFA
:10345800103E253E333E033E063E143E0E3E0D3ED4
:10346800243E123E273E023E183E093E0A3E000018
:1034780008000020102840587088A0B8102840582C
:103488007088A0B8102840587088A0B800000000C4
:1034980000000000010203040607080900000000FC
:0434A8000102030416
:0834AC0094CBFF7F010000003A
:0834B400A9050008250000082D
:0434BC000100000803
:1034C000000000000800002000000000F4020020BE
:1034D0005C030020C4030020000000000000000086
:1034E00000000000000000000000000000000000DC
:1034F00000000000000000000000000000000000CC
:1035000000000000000000000000000000000000BB
:1035100000000000000000000000000000000000AB
:10352000000000000000000000000000000000009B
:10353000000000000000000000000000000000008B
:10354000000000000000000000000000000000007B
:10355000000000000000000000000000000000006B
:10356000000000000000000000000000000000005B
:1035700001000000000000000E33CDAB34126DE6F8
:10358000ECDE05000B000000000000000000000061
:10359000000000000000000000000000000000002B
:1035A000000000000000000000000000000000001B
:1035B000000000000000000000000000000000000B
:1035C00000000000000000000000000000000000FB
:0838F0005C0400200024F40038
:0400000508000000EF
:00000001FF
