:020000040800F2
:10000000000002208D0C00088D0800088F080008F1
:1000100091080008930800089508000800000000F7
:100020000000000000000000000000009708000829
:1000300099080008000000009B0800089D080008BF
:10004000DD0C0008DD0C0008DD0C0008DD0C0008EC
:10005000DD0C0008DD0C0008DD0C0008DD0C0008DC
:10006000DD0C0008DD0C0008DD0C0008DD0C0008CC
:10007000DD0C0008DD0C0008DD0C0008DD0C0008BC
:10008000DD0C0008DD0C0008DD0C0008DD0C0008AC
:10009000DD0C0008DD0C0008DD0C0008DD0C00089C
:1000A000DD0C0008DD0C0008DD0C0008DD0C00088C
:1000B000DD0C0008DD0C0008DD0C0008DD0C00087C
:1000C000DD0C0008DD0C0008DD0C0008DD0C00086C
:1000D000DD0C0008DD0C0008DD0C0008DD0C00085C
:1000E000DD0C0008DD0C0008DD0C0008DD0C00084C
:1000F000DD0C0008DD0C0008DD0C0008DD0C00083C
:10010000DD0C0008DD0C0008DD0C0008DD0C00082B
:10011000DD0C0008DD0C0008DD0C0008DD0C00081B
:10012000DD0C0008DD0C0008DD0C0008DD0C00080B
:10013000DD0C0008DD0C0008DD0C0008DD0C0008FB
:10014000DD0C0008DD0C0008DD0C0008DD0C0008EB
:10015000DD0C0008DD0C0008DD0C0008DD0C0008DB
:10016000DD0C0008DD0C0008DD0C0008DD0C0008CB
:10017000DD0C0008DD0C0008DD0C000800000000AC
:08018000DD0C0008DD0C000895
:1001880010B5054C237833B9044B13B10448AFF3C9
:1001980000800123237010BD04000020000000002F
:1001A800280D000808B5034B1BB103490348AFF3FA
:1001B800008008BD0000000008000020280D00088D
:1001C800034613F8012B002AFBD1181A013870478F
:1001D80053B94AB9002908BF00281CBF4FF0FF31A6
:1001E8004FF0FF3000F074B9ADF1080C6DE904CEA2
:1001F80000F006F8DDF804E0DDE9022304B07047FA
:100208002DE9F047089D04468E46002B4DD18A42C1
:10021800944669D9B2FA82F252B101FA02F3C2F1F4
:10022800200120FA01F10CFA02FC41EA030E944085
:100238004FEA1C48210CBEFBF8F61FFA8CF708FBA6
:1002480016E341EA034306FB07F199420AD91CEB7E
:10025800030306F1FF3080F01F81994240F21C81B0
:10026800023E63445B1AA4B2B3FBF8F008FB1033F8
:1002780044EA034400FB07F7A7420AD91CEB04042D
:1002880000F1FF3380F00A81A74240F207816444FD
:10029800023840EA0640E41B00261DB1D440002382
:1002A800C5E900433146BDE8F0878B4209D9002DE6
:1002B80000F0EF800026C5E9000130463146BDE870
:1002C800F087B3FA83F6002E4AD18B4202D38242DA
:1002D80000F2F980841A61EB030301209E46002D89
:1002E800E0D0C5E9004EDDE702B9FFDEB2FA82F2DE
:1002F800002A40F09280A1EB0C014FEA1C471FFA3C
:100308008CFE0126200CB1FBF7F307FB131140EA22
:1003180001410EFB03F0884208D91CEB010103F1EF
:10032800FF3802D2884200F2CB804346091AA4B2B1
:10033800B1FBF7F007FB101144EA01440EFB00FE85
:10034800A64508D91CEB040400F1FF3102D2A645EA
:1003580000F2BB800846A4EB0E0440EA03409CE789
:10036800C6F12007B34022FA07FC4CEA030C20FA36
:1003780007F401FA06F31C43F9404FEA1C4900FA56
:1003880006F3B1FBF9F8200C1FFA8CFE09FB1811D3
:1003980040EA014108FB0EF0884202FA06F20BD946
:1003A8001CEB010108F1FF3A80F08880884240F296
:1003B8008580A8F102086144091AA4B2B1FBF9F0DA
:1003C80009FB101144EA014100FB0EFE8E4508D9D5
:1003D8001CEB010100F1FF346CD28E456AD902385A
:1003E800614440EA0840A0FB0294A1EB0E01A1423F
:1003F800C846A64656D353D05DB1B3EB080261EBAD
:100408000E0101FA07F722FA06F3F1401F43C5E986
:10041800007100263146BDE8F087C2F12003D840BC
:100428000CFA02FC21FA03F3914001434FEA1C47FE
:100438001FFA8CFEB3FBF7F007FB10360B0C43EAF0
:10044800064300FB0EF69E4204FA02F408D91CEBA0
:10045800030300F1FF382FD29E422DD9023863449E
:100468009B1B89B2B3FBF7F607FB163341EA03413E
:1004780006FB0EF38B4208D91CEB010106F1FF388D
:1004880016D28B4214D9023E6144C91A46EA004684
:1004980038E72E46284605E70646E3E61846F8E616
:1004A8004B45A9D2B9EB020864EB0C0E0138A3E75F
:1004B8004646EAE7204694E74046D1E7D0467BE740
:1004C800023B614432E7304609E76444023842E7B8
:1004D800704700BF84B00F4B1A6B42F080021A635A
:1004E8001A6B02F080020392039A1A6B42F001021F
:1004F8001A631A6B02F001020292029A1A6B42F016
:1005080002021A631B6B03F002030193019B04B000
:10051800704700BF0038024010B590B0002409941D
:100528000A940B940C940D940E940F9403940494D1
:1005380005940694079408941F4B1A6C42F0100215
:100548001A641A6C02F010020292029A1A6B42F0B4
:1005580001021A631B6B03F001030193019B4FF423
:10056800C06303930223049303230593072308938B
:1005780003A9124800F09AF94FF4165309930A9404
:100588000B940C940C230D930E940F9404F1804457
:1005980004F5883409A9204600F0B8FA236923F441
:1005A80090432361636923F02A036361E36843F49A
:1005B8000053E36010B010BD003802400000024054
:1005C80030B591B0002409940A940B940C940D94BE
:1005D8000E940F9403940494059406940794089435
:1005E8001D4B1A6C42F400321A641A6C02F4003281
:1005F8000292029A1A6B42F001021A631B6B03F013
:1006080001030193019B0C25039502230493032303
:100618000593072308930DEB0501104800F046F9F0
:100628004FF4E13309930A940B940C940D950E94AE
:100638000F940B4C09A9204600F068FA236923F4AB
:1006480090432361636923F02A036361E36843F4F9
:100658000053E36011B030BD003802400000024092
:100668000044004010B590B0002409940A940B94FB
:100678000C940D940E940F9403940494059406948A
:10068800079408941E4B1A6C42F480221A641A6C60
:1006980002F480220292029A1A6B42F002021A6352
:1006A8001B6B03F002030193019B4FF44063039318
:1006B80002230493032305930723089303A91148EE
:1006C80000F0F4F84FF4E13309930A940B940C9476
:1006D8000C230D930E940F940B4C09A9204600F09F
:1006E80015FA236923F490432361636923F02A03ED
:1006F8006361E36843F40053E36010B010BD00BFCA
:1007080000380240000402400048004010B51B4A6F
:10071800136823F007031360184B1B6813F0070FC7
:10072800FAD1174A136843F480431360154B1A68CB
:1007380022F0F80242F080021A601A6842F00102C0
:100748001A609A6822F0F0029A609A6822F4E052DD
:100758009A609A6822F460429A609A6822F00302CA
:100768009A60084B9B6813F00C0FFAD1064C204690
:1007780000F0B6F9204600F0C3F910BD003C024075
:1007880000700040003802400024F40009E00278BC
:10079800084B5A60074B1B6813F0800FFAD00139D9
:1007A80001300029F3D1034B1B6813F0400FFAD036
:1007B800704700BF0010014010B50446FFF700FD68
:1007C80001462046FFF7E2FF10BD000000B585B0E6
:1007D800264B5A6C42F480425A645A6C02F48042A6
:1007E8000192019A1A6C42F080521A641B6C03F051
:1007F80080530093009B1E4BD96821F4E0610904E3
:10080800090C1C4A0A43DA60DA68C2F30222C2F110
:100818000703042B28BF04231946131D062B22D9CE
:10082800033A4FF0FF338B40DB4303F00F03934051
:100838001B01DBB20E4A82F82330FFF767FFFFF790
:1008480049FEFFF769FEFFF7BBFEFFF70BFF00232A
:1008580002938DF80C300848FFF7AEFF074BDBB268
:10086800074A5360F7E70022DBE700BF0038024081
:1008780000ED00E00003FA05400D0008480D0008EF
:1008880000440040FEE7FEE7FEE7FEE7FEE77047AC
:100898007047704770470000034AD2F8883043F425
:1008A8007003C2F88830704700ED00E00B6893FAD7
:1008B800A3F3B3FA83FC56E08D68826893FAA3F435
:1008C800B4FA84F464004FF0030E0EFA04F422EA3A
:1008D800040293FAA3F4B4FA84F4640005FA04F465
:1008E80022438260CC68426822EA030203FB04F4D4
:1008F8002243426045E093FAA3F2B2FA82F2072A51
:1009080015D84D69026A93FAA3F4B4FA84F4A400E2
:100918000F2606FA04F422EA040293FAA3F4B4FABE
:1009280084F4A40005FA04F42243026241E04C690D
:10093800456A1A0A92FAA2FEBEFA8EFE4FEA8E0E97
:100948000F2606FA0EFE25EA0E0592FAA2F2B2FA70
:1009580082F2920004FA02F22A43426229E000205D
:1009680070BD0CF1010C0B6833FA0CF244D0012273
:1009780002FA0CF21340F4D070B54A68013A012A21
:100988009AD9C26893FAA3F4B4FA84F464000325EC
:1009980005FA04F422EA040293FAA3F4B4FA84F4FC
:1009A80064000D6905FA04F42243C2604A68022A09
:1009B800A1D04A68046893FAA3FEBEFA8EFE4FEAF5
:1009C8004E0E032505FA0EFE24EA0E0E93FAA3F343
:1009D800B3FA83F35B0002FA03F34EEA03030360FE
:1009E8000CF1010C0B6833FA0CF2B8D0012202FAB0
:1009F8000CF21340F4D0C0E700207047034B9B680B
:100A0800C3F30313024AD35CD8407047003802404E
:100A1800540D0008034B9B68C3F38223024AD35C3E
:100A2800D840704700380240640D0008034B9B68AB
:100A3800C3F34233024AD35CD840704700380240BF
:100A4800640D00080F4B5B6803F4800323B90E4B59
:100A5800082803D0002070470C4BF9E7094A506872
:100A680000F03F00B3FBF0F05368C3F3881303FBB7
:100A780000F05368C3F3014301335B00B0FBF3F0AC
:100A8800704700BF003802400024F40040787D0120
:100A980008B5084B9B6803F00C03042B05D0082B02
:100AA80005D10820FFF7CEFF02E0034800E0034825
:100AB80008BD00BF0038024040787D010024F400E2
:100AC80010B50446FFF7E4FF2060FFF797FF60606A
:100AD800FFF7A0FFA0606068FFF7A8FFE06010BD07
:100AE800064BA3FB00239B09013B4FF0E022536117
:100AF8000023936105231361704700BFD34D621033
:100B0800014B1860704700BF00000020C36813F451
:100B1800005F01D00120704730B585B004460D460E
:100B2800C36823F4164323F00C034A68C9680A43D0
:100B380029690A43A9690A431343C360AB68026978
:100B480022F44052134303616B69426922F44072F4
:100B5800134343616846FFF7B3FF434B9C4210D0F1
:100B6800424B9C4214D0424B9C4213D0414B9C4276
:100B780012D0414B9C4211D0404B9C4210D00120D6
:100B88006FE0039800286BD02B685BB9012068E000
:100B98000298F7E70298F5E70398F3E70298F1E778
:100BA8000298EFE7AA69B2F5004F2CD0002102188D
:100BB8004941121841F10001C90041EA5271D200BD
:100BC80010184FEA83024FEA937341F10001FFF7CF
:100BD800FFFA2B49A1FB00235B091A0192B2642595
:100BE80005FB13031B013233A1FB0313C3F34F139C
:100BF80003F0F0010A4492B203F00F0313449BB2CE
:100C0800A36000202DE00025021845EB050112180D
:100C180041F10001C90041EA5271D200101841F1B6
:100C28000001DA1845EB0503FFF7D2FA1449A1FBD6
:100C380000235B091A0192B2642505FB1303DB004C
:100C48003233A1FB0313C3F34F13590001F4F871B6
:100C58000A4492B203F0070313449BB2A360D0E79F
:100C6800012005B030BD00BF001001400044004025
:100C78000048004000140140004C00400050004073
:100C88001F85EB51DFF834D00D480E490E4A00237A
:100C980002E0D458C4500433C4188C42F9D30B4A28
:100CA8000B4C002301E013600432A242FBD3FFF790
:100CB800F3FD00F011F8FFF789FD704700000220EE
:100CC80000000020040000207C0D00080400002023
:100CD80020000020FEE7000070B50D4D0D4C641B90
:100CE800A4100026A64209D10B4D0C4C00F018F8B0
:100CF800641BA4100026A64205D170BD55F8043B1C
:100D080098470136EEE755F8043B98470136F2E775
:100D1800740D0008740D0008740D0008780D0008A3
:100D2800F8B500BFF8BC08BC9E467047F8B500BFD0
:080D3800F8BC08BC9E467047A0
:100D400061736461736400006173646173717765DA
:100D50007100000000000000000000000102030418
:0C0D60000607080900000000010203045F
:080D6C009CF4FF7F0100000070
:040D7400AD010008C5
:040D780089010008E5
:040D7C000024F4005B
:0400000508000C8D56
:00000001FF
