:020000040800F2
:100000000000022031120008AD060008AF0600080B
:10001000B1060008B3060008B5060008000000009D
:10002000000000000000000000000000B70600080B
:10003000B906000800000000BB060008BD06000865
:100040008112000881120008811200088112000844
:100050008112000881120008811200088112000834
:100060008112000881120008811200088112000824
:100070008112000881120008811200088112000814
:100080008112000881120008811200088112000804
:1000900081120008811200088112000881120008F4
:1000A00081120008811200088112000881120008E4
:1000B00081120008811200088112000881120008D4
:1000C00081120008811200088112000881120008C4
:1000D00081120008811200088112000881120008B4
:1000E00081120008811200088112000881120008A4
:1000F0008112000881120008811200088112000894
:100100008112000881120008811200088112000883
:100110008112000881120008811200088112000873
:100120008112000881120008811200088112000863
:100130008112000881120008811200088112000853
:100140008112000881120008811200088112000843
:100150008112000881120008811200088112000833
:100160008112000881120008811200088112000823
:1001700081120008811200088112000800000000AE
:08018000811200088112000841
:1001880010B5054C237833B9044B13B10448AFF3C9
:1001980000800123237010BD0C0000200000000027
:1001A800CC12000808B5034B1BB103490348AFF351
:1001B800008008BD0000000010000020CC120008DC
:1001C80053B94AB9002908BF00281CBF4FF0FF31B6
:1001D8004FF0FF3000F074B9ADF1080C6DE904CEB2
:1001E80000F006F8DDF804E0DDE9022304B070470A
:1001F8002DE9F047089D04468E46002B4DD18A42D2
:10020800944669D9B2FA82F252B101FA02F3C2F104
:10021800200120FA01F10CFA02FC41EA030E944095
:100228004FEA1C48210CBEFBF8F61FFA8CF708FBB6
:1002380016E341EA034306FB07F199420AD91CEB8E
:10024800030306F1FF3080F01F81994240F21C81C0
:10025800023E63445B1AA4B2B3FBF8F008FB103308
:1002680044EA034400FB07F7A7420AD91CEB04043D
:1002780000F1FF3380F00A81A74240F2078164440D
:10028800023840EA0640E41B00261DB1D440002392
:10029800C5E900433146BDE8F0878B4209D9002DF6
:1002A80000F0EF800026C5E9000130463146BDE880
:1002B800F087B3FA83F6002E4AD18B4202D38242EA
:1002C80000F2F980841A61EB030301209E46002D99
:1002D800E0D0C5E9004EDDE702B9FFDEB2FA82F2EE
:1002E800002A40F09280A1EB0C014FEA1C471FFA4C
:1002F8008CFE0126200CB1FBF7F307FB131140EA33
:1003080001410EFB03F0884208D91CEB010103F1FF
:10031800FF3802D2884200F2CB804346091AA4B2C1
:10032800B1FBF7F007FB101144EA01440EFB00FE95
:10033800A64508D91CEB040400F1FF3102D2A645FA
:1003480000F2BB800846A4EB0E0440EA03409CE799
:10035800C6F12007B34022FA07FC4CEA030C20FA46
:1003680007F401FA06F31C43F9404FEA1C4900FA66
:1003780006F3B1FBF9F8200C1FFA8CFE09FB1811E3
:1003880040EA014108FB0EF0884202FA06F20BD956
:100398001CEB010108F1FF3A80F08880884240F2A6
:1003A8008580A8F102086144091AA4B2B1FBF9F0EA
:1003B80009FB101144EA014100FB0EFE8E4508D9E5
:1003C8001CEB010100F1FF346CD28E456AD902386A
:1003D800614440EA0840A0FB0294A1EB0E01A1424F
:1003E800C846A64656D353D05DB1B3EB080261EBBD
:1003F8000E0101FA07F722FA06F3F1401F43C5E997
:10040800007100263146BDE8F087C2F12003D840CC
:100418000CFA02FC21FA03F3914001434FEA1C470E
:100428001FFA8CFEB3FBF7F007FB10360B0C43EA00
:10043800064300FB0EF69E4204FA02F408D91CEBB0
:10044800030300F1FF382FD29E422DD902386344AE
:100458009B1B89B2B3FBF7F607FB163341EA03414E
:1004680006FB0EF38B4208D91CEB010106F1FF389D
:1004780016D28B4214D9023E6144C91A46EA004694
:1004880038E72E46284605E70646E3E61846F8E626
:100498004B45A9D2B9EB020864EB0C0E0138A3E76F
:1004A8004646EAE7204694E74046D1E7D0467BE750
:1004B800023B614432E7304609E76444023842E7C8
:1004C800704700BF82B00A4B1A6B42F080021A6371
:1004D8001A6B02F080020192019A1A6B42F0010233
:1004E8001A631B6B03F001030093009B02B0704773
:1004F8000038024010B590B0002409940A940B9477
:100508000C940D940E940F940394049405940694FB
:1005180007940894214B5A6C42F010025A645A6CA2
:1005280002F010020292029A1A6B42F001021A6358
:100538001B6B03F001030193019B4FF4C06303930A
:1005480002230493032305930723089303A914485C
:1005580000F0BEF84FF4E13309930A940B940C941D
:100568000C230D930F9404F1804404F5883409A9F1
:10057800204600F0CDF9E36823F40063E3602369C3
:1005880023F490432361636923F02A036361E368DA
:1005980043F40053E36010B010BD00BF00380240C0
:1005A8000000024072B6FEE708B50D480D4B036027
:1005B8004FF48273436000238360C3600361436127
:1005C8004FF400728261C3610362436283620A234B
:1005D800C36200F04BFB00B908BDFFF7E3FF00BFA3
:1005E800280000200030014008B51C4A136823F099
:1005F80007031360194B1B6813F0070FFAD1184A49
:10060800136843F480431360164B1A6822F0F8020B
:1006180042F080021A601A6842F001021A609A6871
:1006280022F0F0029A609A6822F4E0529A609A687E
:1006380022F460429A609A6822F003029A60094B99
:100648009B6813F00C0FFAD1074800F05BF90F20F4
:1006580000F098FD00B908BDFFF7A4FF003C024078
:1006680000700040003802400024F40000B583B058
:1006780000F0AEFDFFF7B8FFFFF724FFFFF73AFFE2
:10068800FFF792FF002300938DF804304FF0FF33FB
:1006980005220249024800F048FBF7E7E412000887
:1006A80028000020FEE7FEE7FEE7FEE7FEE77047CA
:1006B8007047704708B500F0A5FD08BD034AD2F899
:1006C800883043F47003C2F88830704700ED00E0CA
:1006D8000B6893FAA3F3B3FA83FC56E08D6882683B
:1006E80093FAA3F4B4FA84F464004FF0030E0EFAFC
:1006F80004F422EA040293FAA3F4B4FA84F464003A
:1007080005FA04F422438260CC68426822EA0302B4
:1007180003FB04F42243426045E093FAA3F2B2FAE1
:1007280082F2072A15D84D69026A93FAA3F4B4FA3B
:1007380084F4A4000F2606FA04F422EA040293FAC9
:10074800A3F4B4FA84F4A40005FA04F42243026280
:1007580041E04C69456A1A0A92FAA2FEBEFA8EFE78
:100768004FEA8E0E0F2606FA0EFE25EA0E0592FABD
:10077800A2F2B2FA82F2920004FA02F22A43426228
:1007880029E0002070BD0CF1010C0B6833FA0CF263
:1007980044D0012202FA0CF21340F4D070B54A6832
:1007A800013A012A9AD9C26893FAA3F4B4FA84F4F4
:1007B8006400032505FA04F422EA040293FAA3F478
:1007C800B4FA84F464000D6905FA04F42243C260A3
:1007D8004A68022AA1D04A68046893FAA3FEBEFABE
:1007E8008EFE4FEA4E0E032505FA0EFE24EA0E0E83
:1007F80093FAA3F3B3FA83F35B0002FA03F34EEA26
:10080800030303600CF1010C0B6833FA0CF2B8D047
:10081800012202FA0CF21340F4D0C0E7002070471E
:10082800034B9B68C3F30313024AD35CD840704759
:1008380000380240EC120008034B9B68C3F3822384
:10084800024AD35CD840704700380240FC120008C6
:10085800034B9B68C3F34233024AD35CD8407047CA
:1008680000380240FC1200080F4B5B6803F4800359
:1008780023B90E4B082803D0002070470C4BF9E72A
:10088800094A506800F03F00B3FBF0F05368C3F327
:10089800881303FB00F05368C3F3014301335B0083
:1008A800B0FBF3F0704700BF003802400024F400AA
:1008B80040787D0108B5084B9B6803F00C03042BB6
:1008C80005D0082B05D10820FFF7CEFF02E003482A
:1008D80000E0034808BD00BF0038024040787D01B1
:1008E8000024F40010B50446FFF7E4FF2060FFF78A
:1008F80097FF6060FFF7A0FFA0606068FFF7A8FFA0
:10090800E06010BD014B1860704700BF0000002078
:10091800C36813F4005F01D00120704730B585B07B
:1009280004460D46C36823F4164323F00C034A68B3
:10093800C9680A4329690A43A9690A431343C3607A
:10094800AB68026922F44052134303616B69426940
:1009580022F44072134343616846FFF7C3FF434BD9
:100968009C4210D0424B9C4214D0424B9C4213D024
:10097800414B9C4212D0414B9C4211D0404B9C426F
:1009880010D001206FE0039800286BD02B685BB96A
:10099800012068E00298F7E70298F5E70398F3E783
:1009A8000298F1E70298EFE7AA69B2F5004F2CD058
:1009B800002102184941121841F10001C90041EA19
:1009C8005271D20010184FEA83024FEA937341F133
:1009D8000001FFF7F5FB2B49A1FB00235B091A0176
:1009E80092B2642505FB13031B013233A1FB0313E9
:1009F800C3F34F1303F0F0010A4492B203F00F035C
:100A080013449BB2A36000202DE00025021845EB9B
:100A18000501121841F10001C90041EA5271D200E2
:100A2800101841F10001DA1845EB0503FFF7C8FB80
:100A38001449A1FB00235B091A0192B2642505FB46
:100A48001303DB003233A1FB0313C3F34F13590025
:100A580001F4F8710A4492B203F0070313449BB2FD
:100A6800A360D0E7012005B030BD00BF00100140F1
:100A7800004400400048004000140140004C004081
:100A8800005000401F85EB5182B0002100910B4BB4
:100A98005A6C42F480425A645A6C02F480420092C2
:100AA800009A01911A6C42F080521A641B6C03F090
:100AB80080530193019B02B0704700BF0038024089
:100AC80000B589B000230393049305930693079315
:100AD8000268154B9A4202D009B05DF804FB002168
:100AE800019103F584335A6C42F480525A645A6C6B
:100AF80002F480520192019A02911A6B42F00102AB
:100B08001A631B6B03F001030293029BE023039318
:100B180002230493032306930523079303A9034899
:100B280000F0E0F9D8E700BF0030014000000240C3
:100B38002DE9F04782B00546884617461E4600F064
:100B48006DFB0A9B1B1A03EB060900F067FB824644
:100B58002B4B1B68C3F3CB3309FB03F301932B68BF
:100B68009C6838EA04030CBF4FF0010C4FF0000CEE
:100B7800BC4540D0B6F1FF3FF1D000F04FFBA0EBF1
:100B88000A0048450AD2B9F1000F07D0019A02B10C
:100B98004A46019B013B01939146E0E72A68536866
:100BA80023F0E00353606B68B3F5827F0BD0AB6A28
:100BB800B3F5005F14D0012385F85130002385F880
:100BC8005030032018E0AB68B3F5004F02D0B3F5FE
:100BD800806FECD12A68136823F040031360E6E7BE
:100BE8002A68136823F4005313602A68136843F4CF
:100BF80000531360DFE7002002B0BDE8F08700BFB4
:100C08000000002010B584B00446164B1868164B37
:100C1800A3FB0030400D4FF47A7303FB00F0039000
:100C28006368B3F5827F0BD0039BBBB1039B013B89
:100C3800039323689B6813F0800FF5D100200EE022
:100C480000920B46002280212046FFF771FF30B149
:100C5800636D43F020036365032000E0002004B0C7
:100C680010BD00BF00000020819F5E1600285AD0EA
:100C780010B50446436A33B94368B3F5827F05D09B
:100C88000023C36102E00023036143610023A362E0
:100C980094F85130002B40D0022384F85130226858
:100CA800136823F040031360636803F48273A26837
:100CB80002F404421343E26802F400621343226917
:100CC80002F002021343626902F001021343A269AF
:100CD80002F400721343E26902F038021343226AF5
:100CE80002F080021343A26A02F4005221681343FF
:100CF8000B60638B03F00403626A02F01002216840
:100D080013434B602268D36923F40063D361002046
:100D18006065012384F8513010BD84F850302046B6
:100D2800FFF7CEFEB8E7012070472DE9F04383B006
:100D38001D4690F85030012B00F0D18004468846BB
:100D48009146012380F8503000F068FA074694F87D
:100D58005160F6B2012E40F0AF80B8F1000F00F0FC
:100D6800AC80B9F1000F00F0A880032384F851305B
:100D780000236365C4F83080A4F83490A4F8369052
:100D8800A363A387E38763642364A368B3F5004F71
:100D98001ED023681A6812F0400F03D11A6842F077
:100DA80040021A60E368B3F5006F1CD0636813B1A2
:100DB800B9F1010F52D1226B236812781A73236B91
:100DC80001332363E38E9BB2013B9BB2E38645E08C
:100DD8002268136823F0400313602268136843F401
:100DE80080431360D5E7636813B1B9F1010F16D1D9
:100DF800226B23681288DA60236B02332363E38E45
:100E08009BB2013B9BB2E38609E000F007FAC01BE6
:100E1800A84202D3B5F1FF3F59D1002D59D0E38E36
:100E28009BB2002B33D023689A6812F0020FECD0E3
:100E3800226B1288DA60236B02332363E38E9BB242
:100E4800013B9BB2E386EAE700F0E8F9C01BA84241
:100E580002D3B5F1FF3F3ED1002D3ED0E38E9BB2C9
:100E6800ABB123689A6812F0020FEDD0226B1278AA
:100E78001A73236B01332363B4F836C01FFA8CFC52
:100E88000CF1FF3C1FFA8CFCA4F836C0E6E73A46A2
:100E980029462046FFF7B6FE08B120236365A368FC
:100EA80033B901932368DA6801929B680193019B27
:100EB800636D13B9002600E00226012384F851303F
:100EC800002384F85030304603B0BDE8F083032691
:100ED800F3E70326F1E70326EFE70326EDE702260B
:100EE800F1E7000000230F2B00F2E48070B582B018
:100EF80060E085685E000324B44025EA0405CC68F8
:100F0800B4402C438460456825EA02054C68C4F364
:100F180000129A402A4342605AE0DC08083450F82C
:100F2800246003F0070295000F22AA4026EA020E69
:100F38000A69AA4042EA0E0240F824205CE007222F
:100F480000E0002202FA0EF22A4302345A4D45F814
:100F580024205A4A94686FEA0C0224EA0C054E6869
:100F680016F4801F01D04CEA0405544CA560E468CF
:100F780002EA04054E6816F4001F01D04CEA040585
:100F88004E4CE560646802EA04054E6816F4003FBA
:100F980001D04CEA0405494C6560246822404D683C
:100FA80015F4803F01D04CEA0402444C226001331E
:100FB8000F2B7DD801229A400C6804EA020C32EA11
:100FC8000404F4D14C6804F00304013C012C90D9CA
:100FD8004A6802F00302032A09D0C4685D000322AC
:100FE800AA4024EA02048A68AA402243C2604A68E6
:100FF80002F00302022A90D004684FEA430E03224B
:1010080002FA0EF224EA02044A6802F0030202FA23
:101018000EF2224302604A6812F4403FC7D0002211
:101028000192274A546C44F480445464526C02F48C
:1010380080420192019A9C08A51C1F4A52F825502B
:1010480003F003024FEA820E0F2202FA0EF225EA9B
:1010580002051C4A90423FF474AF02F58062904248
:101068001AD002F58062904218D002F58062904250
:1010780016D002F58062904214D002F58062904248
:1010880012D002F58062904210D002F58062904240
:101098003FF455AF082255E7012253E7022251E7F2
:1010A80003224FE704224DE705224BE7062249E7D2
:1010B80002B070BD704700BF00380140003C0140DD
:1010C8000038024000000240074AD36823F4E06376
:1010D8001B041B0C000200F4E060034343F0BF63F1
:1010E80043F40033D360704700ED00E000B5194BBE
:1010F800DB68C3F30223C3F1070CBCF1040F28BF5C
:101108004FF0040C03F1040EBEF1060F18D9033B8F
:101118004FF0FF3E0EFA0CFC21EA0C0199400EFA42
:1011280003F322EA0303194300280BDB0901C9B2C0
:1011380000F1604000F5614080F800135DF804FBA1
:101148000023E5E700F00F000901C9B2024B19546A
:10115800F4E700BF00ED00E014ED00E00138B0F165
:10116800807F0BD24FF0E0235861054AF02182F8C6
:1011780023100020986107221A61704701207047E8
:1011880000ED00E010B504460E4B18784FF47A7362
:10119800B3FBF0F30C4A1068B0FBF3F0FFF7DEFF87
:1011A80068B90F2C01D901200AE0002221464FF02E
:1011B800FF30FFF79BFF054B1C60002000E001207B
:1011C80010BD00BF0400002000000020080000201F
:1011D80008B50B4B1A6842F400721A601A6842F498
:1011E80080621A601A6842F480721A600320FFF75E
:1011F8006BFF0F20FFF7C6FFFFF746FC002008BD76
:10120800003C0240034A1168034B1B780B441360EF
:10121800704700BF8000002004000020014B1868C0
:10122800704700BF80000020DFF834D00D480E4919
:101238000E4A002302E0D458C4500433C4188C4228
:10124800F9D30B4A0B4C002301E013600432A2428D
:10125800FBD3FFF733FA00F011F8FFF707FA7047EE
:1012680000000220000000200C00002014130008D9
:101278000C00002084000020FEE7000070B50D4D32
:101288000D4C641BA4100026A64209D10B4D0C4C32
:1012980000F018F8641BA4100026A64205D170BD02
:1012A80055F8043B98470136EEE755F8043B984754
:1012B8000136F2E70C1300080C1300080C130008A1
:1012C80010130008F8B500BFF8BC08BC9E4670476C
:0C12D800F8B500BFF8BC08BC9E4670478B
:1012E400746573740000000000000000000000003A
:1012F40001020304060708090000000001020304B8
:08130400F4EEFF7F0100000080
:04130C00AD01000827
:041310008901000847
:0C1314000024F4000100000010000000A4
:0400000508001231AC
:00000001FF
