:020000040800F2
:1000000000000220651200085D0600085F06000877
:10001000610600086306000865060008000000008D
:10002000000000000000000000000000670600085B
:1000300069060008000000006B0600086D06000855
:10004000B5120008B5120008B5120008B512000874
:10005000B5120008B5120008B5120008B512000864
:10006000B5120008B5120008B5120008B512000854
:10007000B5120008B5120008B5120008B512000844
:10008000B5120008B5120008B5120008B512000834
:10009000B5120008B5120008B5120008B512000824
:1000A000B5120008B5120008B5120008B512000814
:1000B000B5120008B5120008B5120008B512000804
:1000C000B5120008B5120008B5120008B5120008F4
:1000D000B5120008B5120008B5120008B5120008E4
:1000E000B5120008B5120008B5120008B5120008D4
:1000F000B5120008B5120008B5120008B5120008C4
:10010000B5120008B5120008B5120008B5120008B3
:10011000B5120008B5120008B5120008B5120008A3
:10012000B5120008B5120008B5120008B512000893
:10013000B5120008B5120008B5120008B512000883
:10014000B5120008B5120008B5120008B512000873
:10015000B5120008B5120008B5120008B512000863
:10016000B5120008B5120008B5120008B512000853
:10017000B5120008B5120008B51200080000000012
:08018000B5120008B5120008D9
:1001880010B5054C237833B9044B13B10448AFF3C9
:1001980000800123237010BD0C0000200000000027
:1001A8000013000808B5034B1BB103490348AFF31C
:1001B800008008BD000000001000002000130008A7
:1001C80053B94AB9002908BF00281CBF4FF0FF31B6
:1001D8004FF0FF3000F074B9ADF1080C6DE904CEB2
:1001E80000F006F8DDF804E0DDE9022304B070470A
:1001F8002DE9F047089D04468E46002B4DD18A42D2
:10020800944669D9B2FA82F252B101FA02F3C2F104
:10021800200120FA01F10CFA02FC41EA030E944095
:100228004FEA1C48210CBEFBF8F61FFA8CF708FBB6
:1002380016E341EA034306FB07F199420AD91CEB8E
:10024800030306F1FF3080F01F81994240F21C81C0
:10025800023E63445B1AA4B2B3FBF8F008FB103308
:1002680044EA034400FB07F7A7420AD91CEB04043D
:1002780000F1FF3380F00A81A74240F2078164440D
:10028800023840EA0640E41B00261DB1D440002392
:10029800C5E900433146BDE8F0878B4209D9002DF6
:1002A80000F0EF800026C5E9000130463146BDE880
:1002B800F087B3FA83F6002E4AD18B4202D38242EA
:1002C80000F2F980841A61EB030301209E46002D99
:1002D800E0D0C5E9004EDDE702B9FFDEB2FA82F2EE
:1002E800002A40F09280A1EB0C014FEA1C471FFA4C
:1002F8008CFE0126200CB1FBF7F307FB131140EA33
:1003080001410EFB03F0884208D91CEB010103F1FF
:10031800FF3802D2884200F2CB804346091AA4B2C1
:10032800B1FBF7F007FB101144EA01440EFB00FE95
:10033800A64508D91CEB040400F1FF3102D2A645FA
:1003480000F2BB800846A4EB0E0440EA03409CE799
:10035800C6F12007B34022FA07FC4CEA030C20FA46
:1003680007F401FA06F31C43F9404FEA1C4900FA66
:1003780006F3B1FBF9F8200C1FFA8CFE09FB1811E3
:1003880040EA014108FB0EF0884202FA06F20BD956
:100398001CEB010108F1FF3A80F08880884240F2A6
:1003A8008580A8F102086144091AA4B2B1FBF9F0EA
:1003B80009FB101144EA014100FB0EFE8E4508D9E5
:1003C8001CEB010100F1FF346CD28E456AD902386A
:1003D800614440EA0840A0FB0294A1EB0E01A1424F
:1003E800C846A64656D353D05DB1B3EB080261EBBD
:1003F8000E0101FA07F722FA06F3F1401F43C5E997
:10040800007100263146BDE8F087C2F12003D840CC
:100418000CFA02FC21FA03F3914001434FEA1C470E
:100428001FFA8CFEB3FBF7F007FB10360B0C43EA00
:10043800064300FB0EF69E4204FA02F408D91CEBB0
:10044800030300F1FF382FD29E422DD902386344AE
:100458009B1B89B2B3FBF7F607FB163341EA03414E
:1004680006FB0EF38B4208D91CEB010106F1FF389D
:1004780016D28B4214D9023E6144C91A46EA004694
:1004880038E72E46284605E70646E3E61846F8E626
:100498004B45A9D2B9EB020864EB0C0E0138A3E76F
:1004A8004646EAE7204694E74046D1E7D0467BE750
:1004B800023B614432E7304609E76444023842E7C8
:1004C800704700BF82B00A4B1A6B42F080021A6371
:1004D8001A6B02F080020192019A1A6B42F0010233
:1004E8001A631B6B03F001030093009B02B0704773
:1004F8000038024072B6FEE708B50A480A4B0360A6
:100508004FF4E133436000218160C16001610C2335
:1005180043618161C1610A4600F0EEFD00B908BD82
:10052800FFF7E8FF800000200010014008B50D48E3
:100538000D4B03604FF48273436000238360C360F4
:10054800036143614FF400728261C36103624362D5
:1005580083620A23C36200F0EBF900B908BDFFF714
:10056800C9FF00BF280000200030014008B5204A1C
:10057800136823F0070313601D4B1B6813F0070F64
:10058800FAD11C4A136843F48043136002F5E4323D
:10059800136823F0F80343F080031360136843F0F3
:1005A80001031360144B1B6813F0020FFAD0124BAF
:1005B8009A6822F0F0029A609A6822F4E0529A60EF
:1005C8009A6822F460429A609A6822F003029A605C
:1005D800094B9B6813F00C0FFAD1084800F050F84B
:1005E8000F2000F057FC00B908BDFFF783FF00BFDC
:1005F800003C024000700040003802400024F40033
:1006080000B583B000F06CFCFFF7B0FFFFF75AFFAE
:10061800FFF772FFFFF78AFF002300938DF804307D
:100628004FF0FF3305220749074800F0E0F94FF083
:10063800FF330B220549064800F0A3FDC82000F04F
:100648007BFCEDE71813000828000020241300089D
:1006580080000020FEE7FEE7FEE7FEE7FEE77047C2
:100668007047704708B500F055FC08BD034AD2F83A
:10067800883043F47003C2F88830704700ED00E01A
:10068800014B1860704700BF0000002082B00021B5
:1006980000910B4B5A6C42F480425A645A6C02F433
:1006A80080420092009A01911A6C42F080521A64BA
:1006B8001B6C03F080530193019B02B0704700BF8D
:1006C8000038024000B589B00023039304930593D2
:1006D800069307930268154B9A4202D009B05DF859
:1006E80004FB0021019103F584335A6C42F48052D3
:1006F8005A645A6C02F480520192019A02911A6B60
:1007080042F001021A631B6B03F001030293029B80
:10071800E0230393022304930323069305230793FB
:1007280003A9034800F066FAD8E700BF003001408B
:100738000000024000B58BB0002305930693079391
:10074800089309930368274A934205D0264A93429F
:1007580024D00BB05DF804FB00210191234B1A6CE7
:1007680042F400221A641A6C02F400220192019ADF
:1007780002911A6B42F001021A631B6B03F001032A
:100788000293029B032305930222069208930823EF
:10079800099305A9164800F02DFADAE7002103911C
:1007A800124B5A6C42F010025A645A6C02F0100252
:1007B8000392039A04911A6B42F001021A631B6BAD
:1007C80003F001030493049B4FF4C06305930223D1
:1007D8000693032308930723099305A9044800F007
:1007E80009FAB6E7004C004000100140003802400A
:1007F800000002402DE9F04782B0054688461746BA
:100808001E4600F093FB0A9B1B1A03EB060900F037
:100818008DFB82462B4B1B68C3F3CB3309FB03F3D9
:1008280001932B689C6838EA04030CBF4FF0010C55
:100838004FF0000CBC4540D0B6F1FF3FF1D000F0BE
:1008480075FBA0EB0A0048450AD2B9F1000F07D0A2
:10085800019A02B14A46019B013B01939146E0E7A8
:100868002A68536823F0E00353606B68B3F5827F0E
:100878000BD0AB6AB3F5005F14D0012385F8513073
:10088800002385F85030032018E0AB68B3F5004F1B
:1008980002D0B3F5806FECD12A68136823F04003C7
:1008A8001360E6E72A68136823F4005313602A6884
:1008B800136843F400531360DFE7002002B0BDE87B
:1008C800F08700BF0000002010B584B00446164B26
:1008D8001868164BA3FB0030400D4FF47A7303FBE6
:1008E80000F003906368B3F5827F0BD0039BBBB124
:1008F800039B013B039323689B6813F0800FF5D19A
:1009080000200EE000920B46002280212046FFF7CF
:1009180071FF30B1636D43F020036365032000E08D
:10092800002004B010BD00BF00000020819F5E16AB
:1009380000285AD010B50446436A33B94368B3F562
:10094800827F05D00023C36102E000230361436175
:100958000023A36294F85130002B40D0022384F87E
:1009680051302268136823F040031360636803F46E
:100978008273A26802F404421343E26802F400623C
:100988001343226902F002021343626902F0010272
:100998001343A26902F400721343E26902F03802B9
:1009A8001343226A02F080021343A26A02F400523F
:1009B800216813430B60638B03F00403626A02F03F
:1009C8001002216813434B602268D36923F4006343
:1009D800D36100206065012384F8513010BD84F88C
:1009E80050302046FFF76EFEB8E7012070472DE92A
:1009F800F04383B01D4690F85030012B00F0D180B1
:100A0800044688469146012380F8503000F08EFA5B
:100A1800074694F85160F6B2012E40F0AF80B8F165
:100A2800000F00F0AC80B9F1000F00F0A88003239C
:100A380084F8513000236365C4F83080A4F83490FA
:100A4800A4F83690A363A387E38763642364A36849
:100A5800B3F5004F1ED023681A6812F0400F03D177
:100A68001A6842F040021A60E368B3F5006F1CD0C0
:100A7800636813B1B9F1010F52D1226B2368127860
:100A88001A73236B01332363E38E9BB2013B9BB242
:100A9800E38645E02268136823F040031360226868
:100AA800136843F480431360D5E7636813B1B9F161
:100AB800010F16D1226B23681288DA60236B023388
:100AC8002363E38E9BB2013B9BB2E38609E000F00F
:100AD8002DFAC01BA84202D3B5F1FF3F59D1002D12
:100AE80059D0E38E9BB2002B33D023689A6812F05A
:100AF800020FECD0226B1288DA60236B0233236377
:100B0800E38E9BB2013B9BB2E386EAE700F00EFA64
:100B1800C01BA84202D3B5F1FF3F3ED1002D3ED005
:100B2800E38E9BB2ABB123689A6812F0020FEDD046
:100B3800226B12781A73236B01332363B4F836C01F
:100B48001FFA8CFC0CF1FF3C1FFA8CFCA4F836C091
:100B5800E6E73A4629462046FFF7B6FE08B12023C5
:100B68006365A36833B901932368DA6801929B68C7
:100B78000193019B636D13B9002600E0022601234F
:100B880084F85130002384F85030304603B0BDE873
:100B9800F0830326F3E70326F1E70326EFE70326AE
:100BA800EDE70226F1E70000014B1868704700BF27
:100BB8000000002008B5FFF7F7FF044B9B68C3F35C
:100BC8008223034AD35CD84008BD00BF00380240E6
:100BD8003013000808B5FFF7E7FF044B9B68C3F321
:100BE8004233034AD35CD84008BD00BF00380240F6
:100BF8003013000800230F2B00F2E48070B582B098
:100C080060E085685E000324B44025EA0405CC68EA
:100C1800B4402C438460456825EA02054C68C4F357
:100C280000129A402A4342605AE0DC08083450F81F
:100C3800246003F0070295000F22AA4026EA020E5C
:100C48000A69AA4042EA0E0240F824205CE0072222
:100C580000E0002202FA0EF22A4302345A4D45F807
:100C680024205A4A94686FEA0C0224EA0C054E685C
:100C780016F4801F01D04CEA0405544CA560E468C2
:100C880002EA04054E6816F4001F01D04CEA040578
:100C98004E4CE560646802EA04054E6816F4003FAD
:100CA80001D04CEA0405494C6560246822404D682F
:100CB80015F4803F01D04CEA0402444C2260013311
:100CC8000F2B7DD801229A400C6804EA020C32EA04
:100CD8000404F4D14C6804F00304013C012C90D9BD
:100CE8004A6802F00302032A09D0C4685D0003229F
:100CF800AA4024EA02048A68AA402243C2604A68D9
:100D080002F00302022A90D004684FEA430E03223D
:100D180002FA0EF224EA02044A6802F0030202FA16
:100D28000EF2224302604A6812F4403FC7D0002204
:100D38000192274A546C44F480445464526C02F47F
:100D480080420192019A9C08A51C1F4A52F825501E
:100D580003F003024FEA820E0F2202FA0EF225EA8E
:100D680002051C4A90423FF474AF02F5806290423B
:100D78001AD002F58062904218D002F58062904243
:100D880016D002F58062904214D002F5806290423B
:100D980012D002F58062904210D002F58062904233
:100DA8003FF455AF082255E7012253E7022251E7E5
:100DB80003224FE704224DE705224BE7062249E7C5
:100DC80002B070BD704700BF00380140003C0140D0
:100DD8000038024000000240074AD36823F4E06369
:100DE8001B041B0C000200F4E060034343F0BF63E4
:100DF80043F40033D360704700ED00E000B5194BB1
:100E0800DB68C3F30223C3F1070CBCF1040F28BF4E
:100E18004FF0040C03F1040EBEF1060F18D9033B82
:100E28004FF0FF3E0EFA0CFC21EA0C0199400EFA35
:100E380003F322EA0303194300280BDB0901C9B2B3
:100E480000F1604000F5614080F800135DF804FB94
:100E58000023E5E700F00F000901C9B2024B19545D
:100E6800F4E700BF00ED00E014ED00E00138B0F158
:100E7800807F0BD24FF0E0235861054AF02182F8B9
:100E880023100020986107221A61704701207047DB
:100E980000ED00E010B504460E4B18784FF47A7355
:100EA800B3FBF0F30C4A1068B0FBF3F0FFF7DEFF7A
:100EB80068B90F2C01D901200AE0002221464FF021
:100EC800FF30FFF79BFF054B1C60002000E001206E
:100ED80010BD00BF04000020000000200800002012
:100EE80008B50B4B1A6842F400721A601A6842F48B
:100EF80080621A601A6842F480721A600320FFF751
:100F08006BFF0F20FFF7C6FFFFF7C0FB002008BDEF
:100F1800003C0240034A1168034B1B780B441360E2
:100F2800704700BFC400002004000020014B18686F
:100F3800704700BFC400002038B50446FFF7F6FF2D
:100F48000546B4F1FF3F02D0044B1B781C44FFF761
:100F5800EDFF401BA042FAD338BD00BF04000020BB
:100F680038B504460268136923F44053C1680B433B
:100F7800136183680269134342691343C2691A43C0
:100F88000168CB6823F4164323F00C031343CB60AA
:100F98000268536923F4407381690B435361036802
:100FA800314A934206D002F58062934202D0FFF79D
:100FB80001FE01E0FFF70EFEE369B3F5004F29D00B
:100FC8000021031849411B1841F10001C90041EAF9
:100FD8005371DB00181863684FEA83024FEA937372
:100FE80041F10001FFF7ECF8204DA5FB0032510953
:100FF800642303FB11031B013233A5FB03235B09A5
:1010080003F0F00202EB011203F00F03216813440E
:101018008B6038BD0023021843EB0301121841F11D
:101028000001C90041EA5271D200101841F10001D3
:10103800626892185B41FFF7C3F80C4DA5FB0032BC
:101048005109642303FB1103DB003233A5FB03239F
:101058005B095A0002F4F87202EB011203F007036D
:10106800216813448B60D4E7001001401F85EB51C1
:101078002DE9F84305460F4616469946DDF82080C7
:101088002C68246837EA04030CBF4FF0010C4FF0BA
:10109800000CB4452DD1B8F1FF3FF1D0B8F1000FE5
:1010A80005D0FFF743FFA0EB09004045E8D92A68BF
:1010B80002F10C0353E8003F23F4D0730C3242E8EA
:1010C80000310029F3D12A6802F1140353E8003FE4
:1010D80023F00103143242E800310029F3D1202320
:1010E80085F83D3085F83E30002385F83C300320F4
:1010F80000E00020BDE8F883002840D070B50D4618
:101108001646044690F83D30002B33D0242384F84B
:101118003D302268D36823F40053D3602046FFF79C
:101128001FFF2268136923F49043136122685369EF
:1011380023F02A0353612268136923F00F03136114
:10114800236819690D431D612268D36823F400637D
:10115800D3602368DA681643DE602268D36843F4F4
:101168000053D36000202064202384F83D3084F8A5
:101178003E3070BD80F83C30FFF7DCFAC6E701204E
:1011880070472DE9F04182B01E4690F83D30DBB241
:10119800202B54D104460D469046002953D0002AEE
:1011A80053D090F83C30012B51D0012380F83C30CB
:1011B80000230364212380F83D30FFF7B7FE07467C
:1011C800A4F82480A4F82680A368B3F5805F05D02E
:1011D8004FF00008002384F83C3012E0236913B173
:1011E8004FF00008F6E7A8460025F3E738F8023B79
:1011F8002268C3F308035360E28C92B2013A92B2B8
:10120800E284E38C9BB273B100963B4600228021B6
:101218002046FFF72DFFE0B9002DE7D015F8012B88
:1012280023685A60E8E700963B46002240212046A2
:10123800FFF71EFF78B9202384F83D3000E0022034
:1012480002B0BDE8F0810120FAE70120F8E70220AA
:10125800F6E70320F4E70320F2E70000DFF834D0D4
:101268000D480E490E4A002302E0D458C4500433F6
:10127800C4188C42F9D30B4A0B4C002301E01360CD
:101288000432A242FBD3FFF7F1F900F011F8FFF79F
:10129800B7F9704700000220000000200C00002071
:1012A800481300080C000020C8000020FEE70000DA
:1012B80070B50D4D0D4C641BA4100026A64209D133
:1012C8000B4D0C4C00F018F8641BA4100026A64225
:1012D80005D170BD55F8043B98470136EEE755F83F
:1012E800043B98470136F2E7401300084013000812
:1012F8004013000844130008F8B500BFF8BC08BC48
:101308009E467047F8B500BFF8BC08BC9E467047BB
:10131800736F6D652074657874000000746573746C
:101328002073656E640A00000000000001020304D7
:08133800C0EEFF7F0100000080
:04134000AD010008F3
:041344008901000813
:0C1348000024F400010000001000000070
:040000050800126578
:00000001FF
